{
    "_format": "hh-sol-artifact-1",
    "contractName": "Atlantis",
    "sourceName": "contracts/AtlantisToken.sol",
    "abi": [
        {
            "inputs": [],
            "stateMutability": "nonpayable",
            "type": "constructor"
        },
        {
            "inputs": [],
            "name": "NotDistributionContractAddress",
            "type": "error"
        },
        {
            "inputs": [],
            "name": "NotServiceContractAddress",
            "type": "error"
        },
        {
            "anonymous": false,
            "inputs": [
                {
                    "indexed": true,
                    "internalType": "address",
                    "name": "owner",
                    "type": "address"
                },
                {
                    "indexed": true,
                    "internalType": "address",
                    "name": "spender",
                    "type": "address"
                },
                {
                    "indexed": false,
                    "internalType": "uint256",
                    "name": "value",
                    "type": "uint256"
                }
            ],
            "name": "Approval",
            "type": "event"
        },
        {
            "anonymous": false,
            "inputs": [
                {
                    "indexed": true,
                    "internalType": "address",
                    "name": "previousOwner",
                    "type": "address"
                },
                {
                    "indexed": true,
                    "internalType": "address",
                    "name": "newOwner",
                    "type": "address"
                }
            ],
            "name": "OwnershipTransferred",
            "type": "event"
        },
        {
            "anonymous": false,
            "inputs": [
                {
                    "indexed": true,
                    "internalType": "address",
                    "name": "admin",
                    "type": "address"
                },
                {
                    "indexed": false,
                    "internalType": "address",
                    "name": "contractAddress",
                    "type": "address"
                }
            ],
            "name": "SetDistributorContractAddress",
            "type": "event"
        },
        {
            "anonymous": false,
            "inputs": [
                {
                    "indexed": true,
                    "internalType": "address",
                    "name": "admin",
                    "type": "address"
                },
                {
                    "indexed": false,
                    "internalType": "address",
                    "name": "contractAddress",
                    "type": "address"
                }
            ],
            "name": "SetServiceContractAddress",
            "type": "event"
        },
        {
            "anonymous": false,
            "inputs": [
                {
                    "indexed": true,
                    "internalType": "address",
                    "name": "from",
                    "type": "address"
                },
                {
                    "indexed": true,
                    "internalType": "address",
                    "name": "to",
                    "type": "address"
                },
                {
                    "indexed": false,
                    "internalType": "uint256",
                    "name": "value",
                    "type": "uint256"
                }
            ],
            "name": "Transfer",
            "type": "event"
        },
        {
            "inputs": [
                {
                    "internalType": "address",
                    "name": "owner",
                    "type": "address"
                },
                {
                    "internalType": "address",
                    "name": "spender",
                    "type": "address"
                }
            ],
            "name": "allowance",
            "outputs": [
                {
                    "internalType": "uint256",
                    "name": "",
                    "type": "uint256"
                }
            ],
            "stateMutability": "view",
            "type": "function"
        },
        {
            "inputs": [
                {
                    "internalType": "address",
                    "name": "spender",
                    "type": "address"
                },
                {
                    "internalType": "uint256",
                    "name": "amount",
                    "type": "uint256"
                }
            ],
            "name": "approve",
            "outputs": [
                {
                    "internalType": "bool",
                    "name": "",
                    "type": "bool"
                }
            ],
            "stateMutability": "nonpayable",
            "type": "function"
        },
        {
            "inputs": [
                {
                    "internalType": "address",
                    "name": "account",
                    "type": "address"
                }
            ],
            "name": "balanceOf",
            "outputs": [
                {
                    "internalType": "uint256",
                    "name": "",
                    "type": "uint256"
                }
            ],
            "stateMutability": "view",
            "type": "function"
        },
        {
            "inputs": [
                {
                    "internalType": "uint256",
                    "name": "_amount",
                    "type": "uint256"
                }
            ],
            "name": "burn",
            "outputs": [],
            "stateMutability": "nonpayable",
            "type": "function"
        },
        {
            "inputs": [],
            "name": "decimals",
            "outputs": [
                {
                    "internalType": "uint8",
                    "name": "",
                    "type": "uint8"
                }
            ],
            "stateMutability": "view",
            "type": "function"
        },
        {
            "inputs": [
                {
                    "internalType": "address",
                    "name": "spender",
                    "type": "address"
                },
                {
                    "internalType": "uint256",
                    "name": "subtractedValue",
                    "type": "uint256"
                }
            ],
            "name": "decreaseAllowance",
            "outputs": [
                {
                    "internalType": "bool",
                    "name": "",
                    "type": "bool"
                }
            ],
            "stateMutability": "nonpayable",
            "type": "function"
        },
        {
            "inputs": [],
            "name": "distributorContract",
            "outputs": [
                {
                    "internalType": "address",
                    "name": "",
                    "type": "address"
                }
            ],
            "stateMutability": "view",
            "type": "function"
        },
        {
            "inputs": [
                {
                    "internalType": "address",
                    "name": "spender",
                    "type": "address"
                },
                {
                    "internalType": "uint256",
                    "name": "addedValue",
                    "type": "uint256"
                }
            ],
            "name": "increaseAllowance",
            "outputs": [
                {
                    "internalType": "bool",
                    "name": "",
                    "type": "bool"
                }
            ],
            "stateMutability": "nonpayable",
            "type": "function"
        },
        {
            "inputs": [
                {
                    "internalType": "address",
                    "name": "_account",
                    "type": "address"
                },
                {
                    "internalType": "uint256",
                    "name": "_amount",
                    "type": "uint256"
                }
            ],
            "name": "mint",
            "outputs": [],
            "stateMutability": "nonpayable",
            "type": "function"
        },
        {
            "inputs": [],
            "name": "name",
            "outputs": [
                {
                    "internalType": "string",
                    "name": "",
                    "type": "string"
                }
            ],
            "stateMutability": "view",
            "type": "function"
        },
        {
            "inputs": [],
            "name": "owner",
            "outputs": [
                {
                    "internalType": "address",
                    "name": "",
                    "type": "address"
                }
            ],
            "stateMutability": "view",
            "type": "function"
        },
        {
            "inputs": [],
            "name": "renounceOwnership",
            "outputs": [],
            "stateMutability": "nonpayable",
            "type": "function"
        },
        {
            "inputs": [],
            "name": "serviceContract",
            "outputs": [
                {
                    "internalType": "address",
                    "name": "",
                    "type": "address"
                }
            ],
            "stateMutability": "view",
            "type": "function"
        },
        {
            "inputs": [
                {
                    "internalType": "address",
                    "name": "_distributorContract",
                    "type": "address"
                }
            ],
            "name": "setDistributorContractAddress",
            "outputs": [],
            "stateMutability": "nonpayable",
            "type": "function"
        },
        {
            "inputs": [
                {
                    "internalType": "address",
                    "name": "_serviceContract",
                    "type": "address"
                }
            ],
            "name": "setServiceContractAddress",
            "outputs": [],
            "stateMutability": "nonpayable",
            "type": "function"
        },
        {
            "inputs": [],
            "name": "symbol",
            "outputs": [
                {
                    "internalType": "string",
                    "name": "",
                    "type": "string"
                }
            ],
            "stateMutability": "view",
            "type": "function"
        },
        {
            "inputs": [],
            "name": "totalMinted",
            "outputs": [
                {
                    "internalType": "uint256",
                    "name": "",
                    "type": "uint256"
                }
            ],
            "stateMutability": "view",
            "type": "function"
        },
        {
            "inputs": [],
            "name": "totalSupply",
            "outputs": [
                {
                    "internalType": "uint256",
                    "name": "",
                    "type": "uint256"
                }
            ],
            "stateMutability": "view",
            "type": "function"
        },
        {
            "inputs": [
                {
                    "internalType": "address",
                    "name": "to",
                    "type": "address"
                },
                {
                    "internalType": "uint256",
                    "name": "amount",
                    "type": "uint256"
                }
            ],
            "name": "transfer",
            "outputs": [
                {
                    "internalType": "bool",
                    "name": "",
                    "type": "bool"
                }
            ],
            "stateMutability": "nonpayable",
            "type": "function"
        },
        {
            "inputs": [
                {
                    "internalType": "address",
                    "name": "from",
                    "type": "address"
                },
                {
                    "internalType": "address",
                    "name": "to",
                    "type": "address"
                },
                {
                    "internalType": "uint256",
                    "name": "amount",
                    "type": "uint256"
                }
            ],
            "name": "transferFrom",
            "outputs": [
                {
                    "internalType": "bool",
                    "name": "",
                    "type": "bool"
                }
            ],
            "stateMutability": "nonpayable",
            "type": "function"
        },
        {
            "inputs": [
                {
                    "internalType": "address",
                    "name": "newOwner",
                    "type": "address"
                }
            ],
            "name": "transferOwnership",
            "outputs": [],
            "stateMutability": "nonpayable",
            "type": "function"
        }
    ],
    "bytecode": "0x60806040523480156200001157600080fd5b506040518060400160405280600881526020017f41746c616e7469730000000000000000000000000000000000000000000000008152506040518060400160405280600381526020017f414c540000000000000000000000000000000000000000000000000000000000815250816003908051906020019062000096929190620001a6565b508060049080519060200190620000af929190620001a6565b505050620000d2620000c6620000d860201b60201c565b620000e060201b60201c565b620002bb565b600033905090565b6000600560009054906101000a900473ffffffffffffffffffffffffffffffffffffffff16905081600560006101000a81548173ffffffffffffffffffffffffffffffffffffffff021916908373ffffffffffffffffffffffffffffffffffffffff1602179055508173ffffffffffffffffffffffffffffffffffffffff168173ffffffffffffffffffffffffffffffffffffffff167f8be0079c531659141344cd1fd0a4f28419497f9722a3daafe3b4186f6b6457e060405160405180910390a35050565b828054620001b49062000256565b90600052602060002090601f016020900481019282620001d8576000855562000224565b82601f10620001f357805160ff191683800117855562000224565b8280016001018555821562000224579182015b828111156200022357825182559160200191906001019062000206565b5b50905062000233919062000237565b5090565b5b808211156200025257600081600090555060010162000238565b5090565b600060028204905060018216806200026f57607f821691505b602082108114156200028657620002856200028c565b5b50919050565b7f4e487b7100000000000000000000000000000000000000000000000000000000600052602260045260246000fd5b61214180620002cb6000396000f3fe608060405234801561001057600080fd5b50600436106101375760003560e01c806342966c68116100b8578063a2309ff81161007c578063a2309ff81461032c578063a457c2d71461034a578063a9059cbb1461037a578063dd62ed3e146103aa578063f2fde38b146103da578063ff13f6be146103f657610137565b806342966c681461029a57806370a08231146102b6578063715018a6146102e65780638da5cb5b146102f057806395d89b411461030e57610137565b806324fab44d116100ff57806324fab44d146101f6578063313ce56714610212578063364dab1014610230578063395093511461024e57806340c10f191461027e57610137565b806306fdde031461013c578063095ea7b31461015a57806318160ddd1461018a578063222b9e3f146101a857806323b872dd146101c6575b600080fd5b610144610412565b60405161015191906119f4565b60405180910390f35b610174600480360381019061016f9190611740565b6104a4565b60405161018191906119d9565b60405180910390f35b6101926104c7565b60405161019f9190611b96565b60405180910390f35b6101b06104d1565b6040516101bd91906119be565b60405180910390f35b6101e060048036038101906101db91906116f1565b6104f7565b6040516101ed91906119d9565b60405180910390f35b610210600480360381019061020b919061168c565b610526565b005b61021a610634565b6040516102279190611bb1565b60405180910390f35b61023861063d565b60405161024591906119be565b60405180910390f35b61026860048036038101906102639190611740565b610663565b60405161027591906119d9565b60405180910390f35b61029860048036038101906102939190611740565b61070d565b005b6102b460048036038101906102af919061177c565b6107bb565b005b6102d060048036038101906102cb919061168c565b61084f565b6040516102dd9190611b96565b60405180910390f35b6102ee610897565b005b6102f861091f565b60405161030591906119be565b60405180910390f35b610316610949565b60405161032391906119f4565b60405180910390f35b6103346109db565b6040516103419190611b96565b60405180910390f35b610364600480360381019061035f9190611740565b6109e1565b60405161037191906119d9565b60405180910390f35b610394600480360381019061038f9190611740565b610acb565b6040516103a191906119d9565b60405180910390f35b6103c460048036038101906103bf91906116b5565b610aee565b6040516103d19190611b96565b60405180910390f35b6103f460048036038101906103ef919061168c565b610b75565b005b610410600480360381019061040b919061168c565b610c6d565b005b60606003805461042190611cfa565b80601f016020809104026020016040519081016040528092919081815260200182805461044d90611cfa565b801561049a5780601f1061046f5761010080835404028352916020019161049a565b820191906000526020600020905b81548152906001019060200180831161047d57829003601f168201915b5050505050905090565b6000806104af610d7b565b90506104bc818585610d83565b600191505092915050565b6000600254905090565b600660009054906101000a900473ffffffffffffffffffffffffffffffffffffffff1681565b600080610502610d7b565b905061050f858285610f4e565b61051a858585610fda565b60019150509392505050565b61052e610d7b565b73ffffffffffffffffffffffffffffffffffffffff1661054c61091f565b73ffffffffffffffffffffffffffffffffffffffff16146105a2576040517f08c379a000000000000000000000000000000000000000000000000000000000815260040161059990611ad6565b60405180910390fd5b80600660006101000a81548173ffffffffffffffffffffffffffffffffffffffff021916908373ffffffffffffffffffffffffffffffffffffffff1602179055503373ffffffffffffffffffffffffffffffffffffffff167fcd5cd5482e7ba385014cf5720b191f93bd9976fae0c9d148bc8416d27c57a18c8260405161062991906119be565b60405180910390a250565b60006012905090565b600860009054906101000a900473ffffffffffffffffffffffffffffffffffffffff1681565b60008061066e610d7b565b9050610702818585600160008673ffffffffffffffffffffffffffffffffffffffff1673ffffffffffffffffffffffffffffffffffffffff16815260200190815260200160002060008973ffffffffffffffffffffffffffffffffffffffff1673ffffffffffffffffffffffffffffffffffffffff168152602001908152602001600020546106fd9190611be8565b610d83565b600191505092915050565b600660009054906101000a900473ffffffffffffffffffffffffffffffffffffffff1673ffffffffffffffffffffffffffffffffffffffff163373ffffffffffffffffffffffffffffffffffffffff1614610794576040517f2772a14100000000000000000000000000000000000000000000000000000000815260040160405180910390fd5b80600760008282546107a69190611be8565b925050819055506107b7828261125b565b5050565b3373ffffffffffffffffffffffffffffffffffffffff16600860009054906101000a900473ffffffffffffffffffffffffffffffffffffffff1673ffffffffffffffffffffffffffffffffffffffff1614610842576040517f6dd0b1d300000000000000000000000000000000000000000000000000000000815260040160405180910390fd5b61084c33826113bb565b50565b60008060008373ffffffffffffffffffffffffffffffffffffffff1673ffffffffffffffffffffffffffffffffffffffff168152602001908152602001600020549050919050565b61089f610d7b565b73ffffffffffffffffffffffffffffffffffffffff166108bd61091f565b73ffffffffffffffffffffffffffffffffffffffff1614610913576040517f08c379a000000000000000000000000000000000000000000000000000000000815260040161090a90611ad6565b60405180910390fd5b61091d6000611592565b565b6000600560009054906101000a900473ffffffffffffffffffffffffffffffffffffffff16905090565b60606004805461095890611cfa565b80601f016020809104026020016040519081016040528092919081815260200182805461098490611cfa565b80156109d15780601f106109a6576101008083540402835291602001916109d1565b820191906000526020600020905b8154815290600101906020018083116109b457829003601f168201915b5050505050905090565b60075481565b6000806109ec610d7b565b90506000600160008373ffffffffffffffffffffffffffffffffffffffff1673ffffffffffffffffffffffffffffffffffffffff16815260200190815260200160002060008673ffffffffffffffffffffffffffffffffffffffff1673ffffffffffffffffffffffffffffffffffffffff16815260200190815260200160002054905083811015610ab2576040517f08c379a0000000000000000000000000000000000000000000000000000000008152600401610aa990611b56565b60405180910390fd5b610abf8286868403610d83565b60019250505092915050565b600080610ad6610d7b565b9050610ae3818585610fda565b600191505092915050565b6000600160008473ffffffffffffffffffffffffffffffffffffffff1673ffffffffffffffffffffffffffffffffffffffff16815260200190815260200160002060008373ffffffffffffffffffffffffffffffffffffffff1673ffffffffffffffffffffffffffffffffffffffff16815260200190815260200160002054905092915050565b610b7d610d7b565b73ffffffffffffffffffffffffffffffffffffffff16610b9b61091f565b73ffffffffffffffffffffffffffffffffffffffff1614610bf1576040517f08c379a0000000000000000000000000000000000000000000000000000000008152600401610be890611ad6565b60405180910390fd5b600073ffffffffffffffffffffffffffffffffffffffff168173ffffffffffffffffffffffffffffffffffffffff161415610c61576040517f08c379a0000000000000000000000000000000000000000000000000000000008152600401610c5890611a56565b60405180910390fd5b610c6a81611592565b50565b610c75610d7b565b73ffffffffffffffffffffffffffffffffffffffff16610c9361091f565b73ffffffffffffffffffffffffffffffffffffffff1614610ce9576040517f08c379a0000000000000000000000000000000000000000000000000000000008152600401610ce090611ad6565b60405180910390fd5b80600860006101000a81548173ffffffffffffffffffffffffffffffffffffffff021916908373ffffffffffffffffffffffffffffffffffffffff1602179055503373ffffffffffffffffffffffffffffffffffffffff167fb8b6bc0ceaa132316e34dfd4977c6c4cdb07b8ea79ea34111717f8e361c35d2682604051610d7091906119be565b60405180910390a250565b600033905090565b600073ffffffffffffffffffffffffffffffffffffffff168373ffffffffffffffffffffffffffffffffffffffff161415610df3576040517f08c379a0000000000000000000000000000000000000000000000000000000008152600401610dea90611b36565b60405180910390fd5b600073ffffffffffffffffffffffffffffffffffffffff168273ffffffffffffffffffffffffffffffffffffffff161415610e63576040517f08c379a0000000000000000000000000000000000000000000000000000000008152600401610e5a90611a76565b60405180910390fd5b80600160008573ffffffffffffffffffffffffffffffffffffffff1673ffffffffffffffffffffffffffffffffffffffff16815260200190815260200160002060008473ffffffffffffffffffffffffffffffffffffffff1673ffffffffffffffffffffffffffffffffffffffff168152602001908152602001600020819055508173ffffffffffffffffffffffffffffffffffffffff168373ffffffffffffffffffffffffffffffffffffffff167f8c5be1e5ebec7d5bd14f71427d1e84f3dd0314c0f7b2291e5b200ac8c7c3b92583604051610f419190611b96565b60405180910390a3505050565b6000610f5a8484610aee565b90507fffffffffffffffffffffffffffffffffffffffffffffffffffffffffffffffff8114610fd45781811015610fc6576040517f08c379a0000000000000000000000000000000000000000000000000000000008152600401610fbd90611a96565b60405180910390fd5b610fd38484848403610d83565b5b50505050565b600073ffffffffffffffffffffffffffffffffffffffff168373ffffffffffffffffffffffffffffffffffffffff16141561104a576040517f08c379a000000000000000000000000000000000000000000000000000000000815260040161104190611b16565b60405180910390fd5b600073ffffffffffffffffffffffffffffffffffffffff168273ffffffffffffffffffffffffffffffffffffffff1614156110ba576040517f08c379a00000000000000000000000000000000000000000000000000000000081526004016110b190611a16565b60405180910390fd5b6110c5838383611658565b60008060008573ffffffffffffffffffffffffffffffffffffffff1673ffffffffffffffffffffffffffffffffffffffff1681526020019081526020016000205490508181101561114b576040517f08c379a000000000000000000000000000000000000000000000000000000000815260040161114290611ab6565b60405180910390fd5b8181036000808673ffffffffffffffffffffffffffffffffffffffff1673ffffffffffffffffffffffffffffffffffffffff16815260200190815260200160002081905550816000808573ffffffffffffffffffffffffffffffffffffffff1673ffffffffffffffffffffffffffffffffffffffff16815260200190815260200160002060008282546111de9190611be8565b925050819055508273ffffffffffffffffffffffffffffffffffffffff168473ffffffffffffffffffffffffffffffffffffffff167fddf252ad1be2c89b69c2b068fc378daa952ba7f163c4a11628f55a4df523b3ef846040516112429190611b96565b60405180910390a361125584848461165d565b50505050565b600073ffffffffffffffffffffffffffffffffffffffff168273ffffffffffffffffffffffffffffffffffffffff1614156112cb576040517f08c379a00000000000000000000000000000000000000000000000000000000081526004016112c290611b76565b60405180910390fd5b6112d760008383611658565b80600260008282546112e99190611be8565b92505081905550806000808473ffffffffffffffffffffffffffffffffffffffff1673ffffffffffffffffffffffffffffffffffffffff168152602001908152602001600020600082825461133e9190611be8565b925050819055508173ffffffffffffffffffffffffffffffffffffffff16600073ffffffffffffffffffffffffffffffffffffffff167fddf252ad1be2c89b69c2b068fc378daa952ba7f163c4a11628f55a4df523b3ef836040516113a39190611b96565b60405180910390a36113b76000838361165d565b5050565b600073ffffffffffffffffffffffffffffffffffffffff168273ffffffffffffffffffffffffffffffffffffffff16141561142b576040517f08c379a000000000000000000000000000000000000000000000000000000000815260040161142290611af6565b60405180910390fd5b61143782600083611658565b60008060008473ffffffffffffffffffffffffffffffffffffffff1673ffffffffffffffffffffffffffffffffffffffff168152602001908152602001600020549050818110156114bd576040517f08c379a00000000000000000000000000000000000000000000000000000000081526004016114b490611a36565b60405180910390fd5b8181036000808573ffffffffffffffffffffffffffffffffffffffff1673ffffffffffffffffffffffffffffffffffffffff1681526020019081526020016000208190555081600260008282546115149190611c3e565b92505081905550600073ffffffffffffffffffffffffffffffffffffffff168373ffffffffffffffffffffffffffffffffffffffff167fddf252ad1be2c89b69c2b068fc378daa952ba7f163c4a11628f55a4df523b3ef846040516115799190611b96565b60405180910390a361158d8360008461165d565b505050565b6000600560009054906101000a900473ffffffffffffffffffffffffffffffffffffffff16905081600560006101000a81548173ffffffffffffffffffffffffffffffffffffffff021916908373ffffffffffffffffffffffffffffffffffffffff1602179055508173ffffffffffffffffffffffffffffffffffffffff168173ffffffffffffffffffffffffffffffffffffffff167f8be0079c531659141344cd1fd0a4f28419497f9722a3daafe3b4186f6b6457e060405160405180910390a35050565b505050565b505050565b600081359050611671816120dd565b92915050565b600081359050611686816120f4565b92915050565b60006020828403121561169e57600080fd5b60006116ac84828501611662565b91505092915050565b600080604083850312156116c857600080fd5b60006116d685828601611662565b92505060206116e785828601611662565b9150509250929050565b60008060006060848603121561170657600080fd5b600061171486828701611662565b935050602061172586828701611662565b925050604061173686828701611677565b9150509250925092565b6000806040838503121561175357600080fd5b600061176185828601611662565b925050602061177285828601611677565b9150509250929050565b60006020828403121561178e57600080fd5b600061179c84828501611677565b91505092915050565b6117ae81611c72565b82525050565b6117bd81611c84565b82525050565b60006117ce82611bcc565b6117d88185611bd7565b93506117e8818560208601611cc7565b6117f181611d8a565b840191505092915050565b6000611809602383611bd7565b915061181482611d9b565b604082019050919050565b600061182c602283611bd7565b915061183782611dea565b604082019050919050565b600061184f602683611bd7565b915061185a82611e39565b604082019050919050565b6000611872602283611bd7565b915061187d82611e88565b604082019050919050565b6000611895601d83611bd7565b91506118a082611ed7565b602082019050919050565b60006118b8602683611bd7565b91506118c382611f00565b604082019050919050565b60006118db602083611bd7565b91506118e682611f4f565b602082019050919050565b60006118fe602183611bd7565b915061190982611f78565b604082019050919050565b6000611921602583611bd7565b915061192c82611fc7565b604082019050919050565b6000611944602483611bd7565b915061194f82612016565b604082019050919050565b6000611967602583611bd7565b915061197282612065565b604082019050919050565b600061198a601f83611bd7565b9150611995826120b4565b602082019050919050565b6119a981611cb0565b82525050565b6119b881611cba565b82525050565b60006020820190506119d360008301846117a5565b92915050565b60006020820190506119ee60008301846117b4565b92915050565b60006020820190508181036000830152611a0e81846117c3565b905092915050565b60006020820190508181036000830152611a2f816117fc565b9050919050565b60006020820190508181036000830152611a4f8161181f565b9050919050565b60006020820190508181036000830152611a6f81611842565b9050919050565b60006020820190508181036000830152611a8f81611865565b9050919050565b60006020820190508181036000830152611aaf81611888565b9050919050565b60006020820190508181036000830152611acf816118ab565b9050919050565b60006020820190508181036000830152611aef816118ce565b9050919050565b60006020820190508181036000830152611b0f816118f1565b9050919050565b60006020820190508181036000830152611b2f81611914565b9050919050565b60006020820190508181036000830152611b4f81611937565b9050919050565b60006020820190508181036000830152611b6f8161195a565b9050919050565b60006020820190508181036000830152611b8f8161197d565b9050919050565b6000602082019050611bab60008301846119a0565b92915050565b6000602082019050611bc660008301846119af565b92915050565b600081519050919050565b600082825260208201905092915050565b6000611bf382611cb0565b9150611bfe83611cb0565b9250827fffffffffffffffffffffffffffffffffffffffffffffffffffffffffffffffff03821115611c3357611c32611d2c565b5b828201905092915050565b6000611c4982611cb0565b9150611c5483611cb0565b925082821015611c6757611c66611d2c565b5b828203905092915050565b6000611c7d82611c90565b9050919050565b60008115159050919050565b600073ffffffffffffffffffffffffffffffffffffffff82169050919050565b6000819050919050565b600060ff82169050919050565b60005b83811015611ce5578082015181840152602081019050611cca565b83811115611cf4576000848401525b50505050565b60006002820490506001821680611d1257607f821691505b60208210811415611d2657611d25611d5b565b5b50919050565b7f4e487b7100000000000000000000000000000000000000000000000000000000600052601160045260246000fd5b7f4e487b7100000000000000000000000000000000000000000000000000000000600052602260045260246000fd5b6000601f19601f8301169050919050565b7f45524332303a207472616e7366657220746f20746865207a65726f206164647260008201527f6573730000000000000000000000000000000000000000000000000000000000602082015250565b7f45524332303a206275726e20616d6f756e7420657863656564732062616c616e60008201527f6365000000000000000000000000000000000000000000000000000000000000602082015250565b7f4f776e61626c653a206e6577206f776e657220697320746865207a65726f206160008201527f6464726573730000000000000000000000000000000000000000000000000000602082015250565b7f45524332303a20617070726f766520746f20746865207a65726f20616464726560008201527f7373000000000000000000000000000000000000000000000000000000000000602082015250565b7f45524332303a20696e73756666696369656e7420616c6c6f77616e6365000000600082015250565b7f45524332303a207472616e7366657220616d6f756e742065786365656473206260008201527f616c616e63650000000000000000000000000000000000000000000000000000602082015250565b7f4f776e61626c653a2063616c6c6572206973206e6f7420746865206f776e6572600082015250565b7f45524332303a206275726e2066726f6d20746865207a65726f2061646472657360008201527f7300000000000000000000000000000000000000000000000000000000000000602082015250565b7f45524332303a207472616e736665722066726f6d20746865207a65726f20616460008201527f6472657373000000000000000000000000000000000000000000000000000000602082015250565b7f45524332303a20617070726f76652066726f6d20746865207a65726f2061646460008201527f7265737300000000000000000000000000000000000000000000000000000000602082015250565b7f45524332303a2064656372656173656420616c6c6f77616e63652062656c6f7760008201527f207a65726f000000000000000000000000000000000000000000000000000000602082015250565b7f45524332303a206d696e7420746f20746865207a65726f206164647265737300600082015250565b6120e681611c72565b81146120f157600080fd5b50565b6120fd81611cb0565b811461210857600080fd5b5056fea26469706673582212202b1def38f41ec694a0d22ad40bfc9333ec9f0449630e7954d61e656948ab036764736f6c63430008040033",
    "linkReferences": {},
    "deployedLinkReferences": {}
}