{
  "_format": "hh-sol-artifact-1",
  "contractName": "AtlantisDistributor",
  "sourceName": "contracts/AtlantisDistributor.sol",
  "abi": [
    {
      "inputs": [
        {
          "internalType": "address",
          "name": "_atlantisToken",
          "type": "address"
        }
      ],
      "stateMutability": "nonpayable",
      "type": "constructor"
    },
    {
      "inputs": [],
      "name": "NotAuthorised",
      "type": "error"
    },
    {
      "anonymous": false,
      "inputs": [
        {
          "indexed": true,
          "internalType": "address",
          "name": "admin",
          "type": "address"
        },
        {
          "indexed": false,
          "internalType": "address",
          "name": "newAdmin",
          "type": "address"
        }
      ],
      "name": "AddAdmin",
      "type": "event"
    },
    {
      "anonymous": false,
      "inputs": [
        {
          "indexed": false,
          "internalType": "uint256",
          "name": "numberOfReceivers",
          "type": "uint256"
        },
        {
          "indexed": false,
          "internalType": "uint256",
          "name": "amount",
          "type": "uint256"
        },
        {
          "indexed": false,
          "internalType": "uint256",
          "name": "time",
          "type": "uint256"
        },
        {
          "indexed": false,
          "internalType": "address",
          "name": "admin",
          "type": "address"
        }
      ],
      "name": "Distribution",
      "type": "event"
    },
    {
      "anonymous": false,
      "inputs": [
        {
          "indexed": true,
          "internalType": "address",
          "name": "admin",
          "type": "address"
        },
        {
          "indexed": false,
          "internalType": "address",
          "name": "removedAdmin",
          "type": "address"
        }
      ],
      "name": "RemoveAdmin",
      "type": "event"
    },
    {
      "anonymous": false,
      "inputs": [
        {
          "indexed": true,
          "internalType": "address",
          "name": "admin",
          "type": "address"
        },
        {
          "indexed": false,
          "internalType": "address",
          "name": "suggestedAdmin",
          "type": "address"
        },
        {
          "indexed": false,
          "internalType": "bytes16",
          "name": "action",
          "type": "bytes16"
        }
      ],
      "name": "SuggestAdmin",
      "type": "event"
    },
    {
      "inputs": [
        {
          "internalType": "address",
          "name": "_admin",
          "type": "address"
        }
      ],
      "name": "addAdmin",
      "outputs": [],
      "stateMutability": "nonpayable",
      "type": "function"
    },
    {
      "inputs": [
        {
          "internalType": "address",
          "name": "",
          "type": "address"
        }
      ],
      "name": "admins",
      "outputs": [
        {
          "internalType": "bool",
          "name": "",
          "type": "bool"
        }
      ],
      "stateMutability": "view",
      "type": "function"
    },
    {
      "inputs": [
        {
          "internalType": "address[]",
          "name": "_addresses",
          "type": "address[]"
        },
        {
          "internalType": "uint256[]",
          "name": "_amounts",
          "type": "uint256[]"
        }
      ],
      "name": "distributeToken",
      "outputs": [],
      "stateMutability": "nonpayable",
      "type": "function"
    },
    {
      "inputs": [
        {
          "internalType": "address",
          "name": "_receiver",
          "type": "address"
        }
      ],
      "name": "isReceiver",
      "outputs": [
        {
          "internalType": "bool",
          "name": "",
          "type": "bool"
        }
      ],
      "stateMutability": "view",
      "type": "function"
    },
    {
      "inputs": [],
      "name": "noOfAdmins",
      "outputs": [
        {
          "internalType": "uint8",
          "name": "",
          "type": "uint8"
        }
      ],
      "stateMutability": "view",
      "type": "function"
    },
    {
      "inputs": [
        {
          "internalType": "address",
          "name": "_admin",
          "type": "address"
        }
      ],
      "name": "removeAdmin",
      "outputs": [],
      "stateMutability": "nonpayable",
      "type": "function"
    },
    {
      "inputs": [
        {
          "internalType": "address",
          "name": "",
          "type": "address"
        }
      ],
      "name": "suggestAdminsRemoval",
      "outputs": [
        {
          "internalType": "uint8",
          "name": "votes",
          "type": "uint8"
        }
      ],
      "stateMutability": "view",
      "type": "function"
    },
    {
      "inputs": [
        {
          "internalType": "address",
          "name": "",
          "type": "address"
        }
      ],
      "name": "suggestNewAdmins",
      "outputs": [
        {
          "internalType": "uint8",
          "name": "votes",
          "type": "uint8"
        }
      ],
      "stateMutability": "view",
      "type": "function"
    },
    {
      "inputs": [],
      "name": "totalDistributed",
      "outputs": [
        {
          "internalType": "uint256",
          "name": "",
          "type": "uint256"
        }
      ],
      "stateMutability": "view",
      "type": "function"
    },
    {
      "inputs": [],
      "name": "totalReceivers",
      "outputs": [
        {
          "internalType": "uint256",
          "name": "",
          "type": "uint256"
        }
      ],
      "stateMutability": "view",
      "type": "function"
    }
  ],
  "bytecode": "0x6080604052600060045560006005553480156200001b57600080fd5b5060405162001824380380620018248339818101604052810190620000419190620000f7565b80600660016101000a81548173ffffffffffffffffffffffffffffffffffffffff021916908373ffffffffffffffffffffffffffffffffffffffff16021790555060016000803373ffffffffffffffffffffffffffffffffffffffff1673ffffffffffffffffffffffffffffffffffffffff16815260200190815260200160002060006101000a81548160ff0219169083151502179055505062000171565b600081519050620000f18162000157565b92915050565b6000602082840312156200010a57600080fd5b60006200011a84828501620000e0565b91505092915050565b6000620001308262000137565b9050919050565b600073ffffffffffffffffffffffffffffffffffffffff82169050919050565b620001628162000123565b81146200016e57600080fd5b50565b6116a380620001816000396000f3fe608060405234801561001057600080fd5b506004361061009e5760003560e01c8063659de63b11610066578063659de63b1461016d57806370480275146101895780639af0e1d1146101a5578063e6512a9d146101d5578063efca2eed146101f35761009e565b80631785f53c146100a3578063392243e1146100bf578063429b62e5146100ef5780634a545fcf1461011f57806354ceb4df1461013d575b600080fd5b6100bd60048036038101906100b89190610f5f565b610211565b005b6100d960048036038101906100d49190610f5f565b610561565b6040516100e691906111bd565b60405180910390f35b61010960048036038101906101049190610f5f565b6105b7565b60405161011691906111bd565b60405180910390f35b6101276105d7565b60405161013491906112d8565b60405180910390f35b61015760048036038101906101529190610f5f565b6105ea565b60405161016491906112d8565b60405180910390f35b61018760048036038101906101829190610f88565b610615565b005b6101a3600480360381019061019e9190610f5f565b610a5d565b005b6101bf60048036038101906101ba9190610f5f565b610dd2565b6040516101cc91906112d8565b60405180910390f35b6101dd610dfd565b6040516101ea9190611278565b60405180910390f35b6101fb610e03565b6040516102089190611278565b60405180910390f35b6000803373ffffffffffffffffffffffffffffffffffffffff1673ffffffffffffffffffffffffffffffffffffffff16815260200190815260200160002060009054906101000a900460ff16610293576040517f1648fd0100000000000000000000000000000000000000000000000000000000815260040160405180910390fd5b6000808273ffffffffffffffffffffffffffffffffffffffff1673ffffffffffffffffffffffffffffffffffffffff16815260200190815260200160002060009054906101000a900460ff1661031e576040517f08c379a0000000000000000000000000000000000000000000000000000000008152600401610315906111d8565b60405180910390fd5b6001600660009054906101000a900460ff1660ff161415610374576040517f08c379a000000000000000000000000000000000000000000000000000000000815260040161036b90611238565b60405180910390fd5b6000600360003373ffffffffffffffffffffffffffffffffffffffff1673ffffffffffffffffffffffffffffffffffffffff168152602001908152602001600020905060018160010160003373ffffffffffffffffffffffffffffffffffffffff1673ffffffffffffffffffffffffffffffffffffffff16815260200190815260200160002060006101000a81548160ff02191690831515021790555060018160000160008282829054906101000a900460ff1661043291906113d7565b92506101000a81548160ff021916908360ff1602179055503373ffffffffffffffffffffffffffffffffffffffff167f8e8259062151e73a59c7c52d5e9b1e9dd434da7ccc85aebd9e9229a2d57aef8d83604051610490919061116d565b60405180910390a2600360ff168160000160009054906101000a900460ff1660ff161061055d5760008060008473ffffffffffffffffffffffffffffffffffffffff1673ffffffffffffffffffffffffffffffffffffffff16815260200190815260200160002060006101000a81548160ff0219169083151502179055503373ffffffffffffffffffffffffffffffffffffffff167f148da362aaafc6bbf0e0b77d62428bcd324bcf9785839aa07881d6c78d295df183604051610554919061112b565b60405180910390a25b5050565b6000600160008373ffffffffffffffffffffffffffffffffffffffff1673ffffffffffffffffffffffffffffffffffffffff16815260200190815260200160002060009054906101000a900460ff169050919050565b60006020528060005260406000206000915054906101000a900460ff1681565b600660009054906101000a900460ff1681565b60036020528060005260406000206000915090508060000160009054906101000a900460ff16905081565b6000803373ffffffffffffffffffffffffffffffffffffffff1673ffffffffffffffffffffffffffffffffffffffff16815260200190815260200160002060009054906101000a900460ff16610697576040517f1648fd0100000000000000000000000000000000000000000000000000000000815260040160405180910390fd5b60c8825111156106dc576040517f08c379a00000000000000000000000000000000000000000000000000000000081526004016106d3906111f8565b60405180910390fd5b600080600090505b8351811015610a1957600073ffffffffffffffffffffffffffffffffffffffff1684828151811061073e577f4e487b7100000000000000000000000000000000000000000000000000000000600052603260045260246000fd5b602002602001015173ffffffffffffffffffffffffffffffffffffffff1614610a0657600660019054906101000a900473ffffffffffffffffffffffffffffffffffffffff1673ffffffffffffffffffffffffffffffffffffffff166340c10f198583815181106107d8577f4e487b7100000000000000000000000000000000000000000000000000000000600052603260045260246000fd5b6020026020010151858481518110610819577f4e487b7100000000000000000000000000000000000000000000000000000000600052603260045260246000fd5b60200260200101516040518363ffffffff1660e01b815260040161083e929190611194565b600060405180830381600087803b15801561085857600080fd5b505af115801561086c573d6000803e3d6000fd5b505050506108b98482815181106108ac577f4e487b7100000000000000000000000000000000000000000000000000000000600052603260045260246000fd5b6020026020010151610561565b6109635760016005546108cc9190611381565b6005819055506001151560016000868481518110610913577f4e487b7100000000000000000000000000000000000000000000000000000000600052603260045260246000fd5b602002602001015173ffffffffffffffffffffffffffffffffffffffff1673ffffffffffffffffffffffffffffffffffffffff16815260200190815260200160002060009054906101000a905050505b82818151811061099c577f4e487b7100000000000000000000000000000000000000000000000000000000600052603260045260246000fd5b6020026020010151826109af9190611381565b91508281815181106109ea577f4e487b7100000000000000000000000000000000000000000000000000000000600052603260045260246000fd5b60200260200101516004546109ff9190611381565b6004819055505b8080610a1190611494565b9150506106e4565b507ff5fce361d34e5fabb5ae5087cf23414d10bb745a53f03aeefe87818576a58b558351824233604051610a509493929190611293565b60405180910390a1505050565b6000803373ffffffffffffffffffffffffffffffffffffffff1673ffffffffffffffffffffffffffffffffffffffff16815260200190815260200160002060009054906101000a900460ff16610adf576040517f1648fd0100000000000000000000000000000000000000000000000000000000815260040160405180910390fd5b6000808273ffffffffffffffffffffffffffffffffffffffff1673ffffffffffffffffffffffffffffffffffffffff16815260200190815260200160002060009054906101000a900460ff1615610b6b576040517f08c379a0000000000000000000000000000000000000000000000000000000008152600401610b6290611218565b60405180910390fd5b600560ff16600660009054906101000a900460ff1660ff1610610bc3576040517f08c379a0000000000000000000000000000000000000000000000000000000008152600401610bba90611258565b60405180910390fd5b6000600260003373ffffffffffffffffffffffffffffffffffffffff1673ffffffffffffffffffffffffffffffffffffffff168152602001908152602001600020905060018160010160003373ffffffffffffffffffffffffffffffffffffffff1673ffffffffffffffffffffffffffffffffffffffff16815260200190815260200160002060006101000a81548160ff02191690831515021790555060018160000160008282829054906101000a900460ff16610c8191906113d7565b92506101000a81548160ff021916908360ff1602179055503373ffffffffffffffffffffffffffffffffffffffff167f8e8259062151e73a59c7c52d5e9b1e9dd434da7ccc85aebd9e9229a2d57aef8d83604051610cdf9190611146565b60405180910390a2600360ff168160000160009054906101000a900460ff1660ff16101580610d235750600360ff16600660009054906101000a900460ff1660ff16105b15610dce5760016000808473ffffffffffffffffffffffffffffffffffffffff1673ffffffffffffffffffffffffffffffffffffffff16815260200190815260200160002060006101000a81548160ff0219169083151502179055503373ffffffffffffffffffffffffffffffffffffffff167f99ad91c72e4fcc0a37d0481b982aec5c0c78491d30d39e65338bec15fa9cc4b783604051610dc5919061112b565b60405180910390a25b5050565b60026020528060005260406000206000915090508060000160009054906101000a900460ff16905081565b60055481565b60045481565b6000610e1c610e1784611318565b6112f3565b90508083825260208201905082856020860282011115610e3b57600080fd5b60005b85811015610e6b5781610e518882610ee1565b845260208401935060208301925050600181019050610e3e565b5050509392505050565b6000610e88610e8384611344565b6112f3565b90508083825260208201905082856020860282011115610ea757600080fd5b60005b85811015610ed75781610ebd8882610f4a565b845260208401935060208301925050600181019050610eaa565b5050509392505050565b600081359050610ef08161163f565b92915050565b600082601f830112610f0757600080fd5b8135610f17848260208601610e09565b91505092915050565b600082601f830112610f3157600080fd5b8135610f41848260208601610e75565b91505092915050565b600081359050610f5981611656565b92915050565b600060208284031215610f7157600080fd5b6000610f7f84828501610ee1565b91505092915050565b60008060408385031215610f9b57600080fd5b600083013567ffffffffffffffff811115610fb557600080fd5b610fc185828601610ef6565b925050602083013567ffffffffffffffff811115610fde57600080fd5b610fea85828601610f20565b9150509250929050565b610ffd8161140e565b82525050565b61100c81611420565b82525050565b600061101f601183611370565b915061102a8261154c565b602082019050919050565b6000611042602c83611370565b915061104d82611575565b604082019050919050565b6000611065601083611370565b9150611070826115c4565b602082019050919050565b7f6164640000000000000000000000000000000000000000000000000000000000815250565b7f72656d6f76650000000000000000000000000000000000000000000000000000815250565b60006110d4602083611370565b91506110df826115ed565b602082019050919050565b60006110f7601c83611370565b915061110282611616565b602082019050919050565b6111168161144c565b82525050565b61112581611456565b82525050565b60006020820190506111406000830184610ff4565b92915050565b600060408201905061115b6000830184610ff4565b6111676020830161107b565b92915050565b60006040820190506111826000830184610ff4565b61118e602083016110a1565b92915050565b60006040820190506111a96000830185610ff4565b6111b6602083018461110d565b9392505050565b60006020820190506111d26000830184611003565b92915050565b600060208201905081810360008301526111f181611012565b9050919050565b6000602082019050818103600083015261121181611035565b9050919050565b6000602082019050818103600083015261123181611058565b9050919050565b60006020820190508181036000830152611251816110c7565b9050919050565b60006020820190508181036000830152611271816110ea565b9050919050565b600060208201905061128d600083018461110d565b92915050565b60006080820190506112a8600083018761110d565b6112b5602083018661110d565b6112c2604083018561110d565b6112cf6060830184610ff4565b95945050505050565b60006020820190506112ed600083018461111c565b92915050565b60006112fd61130e565b90506113098282611463565b919050565b6000604051905090565b600067ffffffffffffffff8211156113335761133261150c565b5b602082029050602081019050919050565b600067ffffffffffffffff82111561135f5761135e61150c565b5b602082029050602081019050919050565b600082825260208201905092915050565b600061138c8261144c565b91506113978361144c565b9250827fffffffffffffffffffffffffffffffffffffffffffffffffffffffffffffffff038211156113cc576113cb6114dd565b5b828201905092915050565b60006113e282611456565b91506113ed83611456565b92508260ff03821115611403576114026114dd565b5b828201905092915050565b60006114198261142c565b9050919050565b60008115159050919050565b600073ffffffffffffffffffffffffffffffffffffffff82169050919050565b6000819050919050565b600060ff82169050919050565b61146c8261153b565b810181811067ffffffffffffffff8211171561148b5761148a61150c565b5b80604052505050565b600061149f8261144c565b91507fffffffffffffffffffffffffffffffffffffffffffffffffffffffffffffffff8214156114d2576114d16114dd565b5b600182019050919050565b7f4e487b7100000000000000000000000000000000000000000000000000000000600052601160045260246000fd5b7f4e487b7100000000000000000000000000000000000000000000000000000000600052604160045260246000fd5b6000601f19601f8301169050919050565b7f416c726561647920616e2061646d696e2e000000000000000000000000000000600082015250565b7f43616e206e6f74206469737472696275746520746f206d6f7265207468616e2060008201527f323030206174206f6e63652e0000000000000000000000000000000000000000602082015250565b7f416c726561647920616e2061646d696e00000000000000000000000000000000600082015250565b7f52656163686564206d696e696d756d206e756d626572206f662061646d696e73600082015250565b7f52656163686564206d6178206e756d626572206f662061646d696e7300000000600082015250565b6116488161140e565b811461165357600080fd5b50565b61165f8161144c565b811461166a57600080fd5b5056fea264697066735822122063ca2111afc58f83a3a91042bd8ee0474ca187085c055323d35d670c1047d18564736f6c63430008040033",
  "linkReferences": {},
  "deployedLinkReferences": {}
}