{
  "_format": "hh-sol-artifact-1",
  "contractName": "Atlantis",
  "sourceName": "contracts/AtlantisToken.sol",
  "abi": [
    {
      "inputs": [],
      "stateMutability": "nonpayable",
      "type": "constructor"
    },
    {
      "inputs": [],
      "name": "NotDistributionContractAddress",
      "type": "error"
    },
    {
      "anonymous": false,
      "inputs": [
        {
          "indexed": true,
          "internalType": "address",
          "name": "owner",
          "type": "address"
        },
        {
          "indexed": true,
          "internalType": "address",
          "name": "spender",
          "type": "address"
        },
        {
          "indexed": false,
          "internalType": "uint256",
          "name": "value",
          "type": "uint256"
        }
      ],
      "name": "Approval",
      "type": "event"
    },
    {
      "anonymous": false,
      "inputs": [
        {
          "indexed": true,
          "internalType": "address",
          "name": "previousOwner",
          "type": "address"
        },
        {
          "indexed": true,
          "internalType": "address",
          "name": "newOwner",
          "type": "address"
        }
      ],
      "name": "OwnershipTransferred",
      "type": "event"
    },
    {
      "anonymous": false,
      "inputs": [
        {
          "indexed": true,
          "internalType": "address",
          "name": "",
          "type": "address"
        }
      ],
      "name": "SetDistributionContractAddress",
      "type": "event"
    },
    {
      "anonymous": false,
      "inputs": [
        {
          "indexed": true,
          "internalType": "address",
          "name": "from",
          "type": "address"
        },
        {
          "indexed": true,
          "internalType": "address",
          "name": "to",
          "type": "address"
        },
        {
          "indexed": false,
          "internalType": "uint256",
          "name": "value",
          "type": "uint256"
        }
      ],
      "name": "Transfer",
      "type": "event"
    },
    {
      "inputs": [
        {
          "internalType": "address",
          "name": "owner",
          "type": "address"
        },
        {
          "internalType": "address",
          "name": "spender",
          "type": "address"
        }
      ],
      "name": "allowance",
      "outputs": [
        {
          "internalType": "uint256",
          "name": "",
          "type": "uint256"
        }
      ],
      "stateMutability": "view",
      "type": "function"
    },
    {
      "inputs": [
        {
          "internalType": "address",
          "name": "spender",
          "type": "address"
        },
        {
          "internalType": "uint256",
          "name": "amount",
          "type": "uint256"
        }
      ],
      "name": "approve",
      "outputs": [
        {
          "internalType": "bool",
          "name": "",
          "type": "bool"
        }
      ],
      "stateMutability": "nonpayable",
      "type": "function"
    },
    {
      "inputs": [
        {
          "internalType": "address",
          "name": "account",
          "type": "address"
        }
      ],
      "name": "balanceOf",
      "outputs": [
        {
          "internalType": "uint256",
          "name": "",
          "type": "uint256"
        }
      ],
      "stateMutability": "view",
      "type": "function"
    },
    {
      "inputs": [
        {
          "internalType": "address",
          "name": "account",
          "type": "address"
        },
        {
          "internalType": "uint256",
          "name": "amount",
          "type": "uint256"
        }
      ],
      "name": "burn",
      "outputs": [],
      "stateMutability": "nonpayable",
      "type": "function"
    },
    {
      "inputs": [],
      "name": "decimals",
      "outputs": [
        {
          "internalType": "uint8",
          "name": "",
          "type": "uint8"
        }
      ],
      "stateMutability": "view",
      "type": "function"
    },
    {
      "inputs": [
        {
          "internalType": "address",
          "name": "spender",
          "type": "address"
        },
        {
          "internalType": "uint256",
          "name": "subtractedValue",
          "type": "uint256"
        }
      ],
      "name": "decreaseAllowance",
      "outputs": [
        {
          "internalType": "bool",
          "name": "",
          "type": "bool"
        }
      ],
      "stateMutability": "nonpayable",
      "type": "function"
    },
    {
      "inputs": [],
      "name": "distributionContract",
      "outputs": [
        {
          "internalType": "address",
          "name": "",
          "type": "address"
        }
      ],
      "stateMutability": "view",
      "type": "function"
    },
    {
      "inputs": [
        {
          "internalType": "address",
          "name": "spender",
          "type": "address"
        },
        {
          "internalType": "uint256",
          "name": "addedValue",
          "type": "uint256"
        }
      ],
      "name": "increaseAllowance",
      "outputs": [
        {
          "internalType": "bool",
          "name": "",
          "type": "bool"
        }
      ],
      "stateMutability": "nonpayable",
      "type": "function"
    },
    {
      "inputs": [
        {
          "internalType": "address",
          "name": "_to",
          "type": "address"
        },
        {
          "internalType": "uint256",
          "name": "_amount",
          "type": "uint256"
        }
      ],
      "name": "mint",
      "outputs": [],
      "stateMutability": "nonpayable",
      "type": "function"
    },
    {
      "inputs": [],
      "name": "name",
      "outputs": [
        {
          "internalType": "string",
          "name": "",
          "type": "string"
        }
      ],
      "stateMutability": "view",
      "type": "function"
    },
    {
      "inputs": [],
      "name": "owner",
      "outputs": [
        {
          "internalType": "address",
          "name": "",
          "type": "address"
        }
      ],
      "stateMutability": "view",
      "type": "function"
    },
    {
      "inputs": [],
      "name": "renounceOwnership",
      "outputs": [],
      "stateMutability": "nonpayable",
      "type": "function"
    },
    {
      "inputs": [
        {
          "internalType": "address",
          "name": "_distributionContract",
          "type": "address"
        }
      ],
      "name": "setDistributionContractAddress",
      "outputs": [],
      "stateMutability": "nonpayable",
      "type": "function"
    },
    {
      "inputs": [],
      "name": "symbol",
      "outputs": [
        {
          "internalType": "string",
          "name": "",
          "type": "string"
        }
      ],
      "stateMutability": "view",
      "type": "function"
    },
    {
      "inputs": [],
      "name": "totalSupply",
      "outputs": [
        {
          "internalType": "uint256",
          "name": "",
          "type": "uint256"
        }
      ],
      "stateMutability": "view",
      "type": "function"
    },
    {
      "inputs": [
        {
          "internalType": "address",
          "name": "to",
          "type": "address"
        },
        {
          "internalType": "uint256",
          "name": "amount",
          "type": "uint256"
        }
      ],
      "name": "transfer",
      "outputs": [
        {
          "internalType": "bool",
          "name": "",
          "type": "bool"
        }
      ],
      "stateMutability": "nonpayable",
      "type": "function"
    },
    {
      "inputs": [
        {
          "internalType": "address",
          "name": "from",
          "type": "address"
        },
        {
          "internalType": "address",
          "name": "to",
          "type": "address"
        },
        {
          "internalType": "uint256",
          "name": "amount",
          "type": "uint256"
        }
      ],
      "name": "transferFrom",
      "outputs": [
        {
          "internalType": "bool",
          "name": "",
          "type": "bool"
        }
      ],
      "stateMutability": "nonpayable",
      "type": "function"
    },
    {
      "inputs": [
        {
          "internalType": "address",
          "name": "newOwner",
          "type": "address"
        }
      ],
      "name": "transferOwnership",
      "outputs": [],
      "stateMutability": "nonpayable",
      "type": "function"
    }
  ],
  "bytecode": "0x60806040523480156200001157600080fd5b506040518060400160405280600881526020017f41746c616e7469730000000000000000000000000000000000000000000000008152506040518060400160405280600381526020017f414c54000000000000000000000000000000000000000000000000000000000081525081600390805190602001906200009692919062000345565b508060049080519060200190620000af92919062000345565b505050620000d2620000c6620000f460201b60201c565b620000fc60201b60201c565b620000ee3369d3c21bcecceda1000000620001c260201b60201c565b620005a1565b600033905090565b6000600560009054906101000a900473ffffffffffffffffffffffffffffffffffffffff16905081600560006101000a81548173ffffffffffffffffffffffffffffffffffffffff021916908373ffffffffffffffffffffffffffffffffffffffff1602179055508173ffffffffffffffffffffffffffffffffffffffff168173ffffffffffffffffffffffffffffffffffffffff167f8be0079c531659141344cd1fd0a4f28419497f9722a3daafe3b4186f6b6457e060405160405180910390a35050565b600073ffffffffffffffffffffffffffffffffffffffff168273ffffffffffffffffffffffffffffffffffffffff16141562000235576040517f08c379a00000000000000000000000000000000000000000000000000000000081526004016200022c906200042d565b60405180910390fd5b62000249600083836200033b60201b60201c565b80600260008282546200025d91906200047d565b92505081905550806000808473ffffffffffffffffffffffffffffffffffffffff1673ffffffffffffffffffffffffffffffffffffffff1681526020019081526020016000206000828254620002b491906200047d565b925050819055508173ffffffffffffffffffffffffffffffffffffffff16600073ffffffffffffffffffffffffffffffffffffffff167fddf252ad1be2c89b69c2b068fc378daa952ba7f163c4a11628f55a4df523b3ef836040516200031b91906200044f565b60405180910390a362000337600083836200034060201b60201c565b5050565b505050565b505050565b8280546200035390620004e4565b90600052602060002090601f016020900481019282620003775760008555620003c3565b82601f106200039257805160ff1916838001178555620003c3565b82800160010185558215620003c3579182015b82811115620003c2578251825591602001919060010190620003a5565b5b509050620003d29190620003d6565b5090565b5b80821115620003f1576000816000905550600101620003d7565b5090565b600062000404601f836200046c565b9150620004118262000578565b602082019050919050565b6200042781620004da565b82525050565b600060208201905081810360008301526200044881620003f5565b9050919050565b60006020820190506200046660008301846200041c565b92915050565b600082825260208201905092915050565b60006200048a82620004da565b91506200049783620004da565b9250827fffffffffffffffffffffffffffffffffffffffffffffffffffffffffffffffff03821115620004cf57620004ce6200051a565b5b828201905092915050565b6000819050919050565b60006002820490506001821680620004fd57607f821691505b6020821081141562000514576200051362000549565b5b50919050565b7f4e487b7100000000000000000000000000000000000000000000000000000000600052601160045260246000fd5b7f4e487b7100000000000000000000000000000000000000000000000000000000600052602260045260246000fd5b7f45524332303a206d696e7420746f20746865207a65726f206164647265737300600082015250565b611f4d80620005b16000396000f3fe608060405234801561001057600080fd5b50600436106101165760003560e01c806370a08231116100a25780639dc29fac116100715780639dc29fac146102d1578063a457c2d7146102ed578063a9059cbb1461031d578063dd62ed3e1461034d578063f2fde38b1461037d57610116565b806370a082311461025b578063715018a61461028b5780638da5cb5b1461029557806395d89b41146102b357610116565b806323b872dd116100e957806323b872dd146101a3578063313ce567146101d357806339509351146101f157806340c10f19146102215780635a4528c21461023d57610116565b806306fdde031461011b578063095ea7b31461013957806318160ddd146101695780631efe6a1014610187575b600080fd5b610123610399565b6040516101309190611800565b60405180910390f35b610153600480360381019061014e9190611575565b61042b565b60405161016091906117e5565b60405180910390f35b61017161044e565b60405161017e91906119a2565b60405180910390f35b6101a1600480360381019061019c91906114c1565b610458565b005b6101bd60048036038101906101b89190611526565b61055b565b6040516101ca91906117e5565b60405180910390f35b6101db61058a565b6040516101e891906119bd565b60405180910390f35b61020b60048036038101906102069190611575565b610593565b60405161021891906117e5565b60405180910390f35b61023b60048036038101906102369190611575565b61063d565b005b6102456106d2565b60405161025291906117ca565b60405180910390f35b610275600480360381019061027091906114c1565b6106f8565b60405161028291906119a2565b60405180910390f35b610293610740565b005b61029d6107c8565b6040516102aa91906117ca565b60405180910390f35b6102bb6107f2565b6040516102c89190611800565b60405180910390f35b6102eb60048036038101906102e69190611575565b610884565b005b61030760048036038101906103029190611575565b610924565b60405161031491906117e5565b60405180910390f35b61033760048036038101906103329190611575565b610a0e565b60405161034491906117e5565b60405180910390f35b610367600480360381019061036291906114ea565b610a31565b60405161037491906119a2565b60405180910390f35b610397600480360381019061039291906114c1565b610ab8565b005b6060600380546103a890611b06565b80601f01602080910402602001604051908101604052809291908181526020018280546103d490611b06565b80156104215780601f106103f657610100808354040283529160200191610421565b820191906000526020600020905b81548152906001019060200180831161040457829003601f168201915b5050505050905090565b600080610436610bb0565b9050610443818585610bb8565b600191505092915050565b6000600254905090565b610460610bb0565b73ffffffffffffffffffffffffffffffffffffffff1661047e6107c8565b73ffffffffffffffffffffffffffffffffffffffff16146104d4576040517f08c379a00000000000000000000000000000000000000000000000000000000081526004016104cb906118e2565b60405180910390fd5b80600660006101000a81548173ffffffffffffffffffffffffffffffffffffffff021916908373ffffffffffffffffffffffffffffffffffffffff1602179055503373ffffffffffffffffffffffffffffffffffffffff167f27d77941b1e60a23f325c792ac6e98bf10a556e7be9e96491321a61e90410bce60405160405180910390a250565b600080610566610bb0565b9050610573858285610d83565b61057e858585610e0f565b60019150509392505050565b60006012905090565b60008061059e610bb0565b9050610632818585600160008673ffffffffffffffffffffffffffffffffffffffff1673ffffffffffffffffffffffffffffffffffffffff16815260200190815260200160002060008973ffffffffffffffffffffffffffffffffffffffff1673ffffffffffffffffffffffffffffffffffffffff1681526020019081526020016000205461062d91906119f4565b610bb8565b600191505092915050565b600660009054906101000a900473ffffffffffffffffffffffffffffffffffffffff1673ffffffffffffffffffffffffffffffffffffffff163373ffffffffffffffffffffffffffffffffffffffff16146106c4576040517f2772a14100000000000000000000000000000000000000000000000000000000815260040160405180910390fd5b6106ce8282611090565b5050565b600660009054906101000a900473ffffffffffffffffffffffffffffffffffffffff1681565b60008060008373ffffffffffffffffffffffffffffffffffffffff1673ffffffffffffffffffffffffffffffffffffffff168152602001908152602001600020549050919050565b610748610bb0565b73ffffffffffffffffffffffffffffffffffffffff166107666107c8565b73ffffffffffffffffffffffffffffffffffffffff16146107bc576040517f08c379a00000000000000000000000000000000000000000000000000000000081526004016107b3906118e2565b60405180910390fd5b6107c660006111f0565b565b6000600560009054906101000a900473ffffffffffffffffffffffffffffffffffffffff16905090565b60606004805461080190611b06565b80601f016020809104026020016040519081016040528092919081815260200182805461082d90611b06565b801561087a5780601f1061084f5761010080835404028352916020019161087a565b820191906000526020600020905b81548152906001019060200180831161085d57829003601f168201915b5050505050905090565b600660009054906101000a900473ffffffffffffffffffffffffffffffffffffffff1673ffffffffffffffffffffffffffffffffffffffff163373ffffffffffffffffffffffffffffffffffffffff161461090b576040517f2772a14100000000000000000000000000000000000000000000000000000000815260040160405180910390fd5b610916823383610d83565b61092082826112b6565b5050565b60008061092f610bb0565b90506000600160008373ffffffffffffffffffffffffffffffffffffffff1673ffffffffffffffffffffffffffffffffffffffff16815260200190815260200160002060008673ffffffffffffffffffffffffffffffffffffffff1673ffffffffffffffffffffffffffffffffffffffff168152602001908152602001600020549050838110156109f5576040517f08c379a00000000000000000000000000000000000000000000000000000000081526004016109ec90611962565b60405180910390fd5b610a028286868403610bb8565b60019250505092915050565b600080610a19610bb0565b9050610a26818585610e0f565b600191505092915050565b6000600160008473ffffffffffffffffffffffffffffffffffffffff1673ffffffffffffffffffffffffffffffffffffffff16815260200190815260200160002060008373ffffffffffffffffffffffffffffffffffffffff1673ffffffffffffffffffffffffffffffffffffffff16815260200190815260200160002054905092915050565b610ac0610bb0565b73ffffffffffffffffffffffffffffffffffffffff16610ade6107c8565b73ffffffffffffffffffffffffffffffffffffffff1614610b34576040517f08c379a0000000000000000000000000000000000000000000000000000000008152600401610b2b906118e2565b60405180910390fd5b600073ffffffffffffffffffffffffffffffffffffffff168173ffffffffffffffffffffffffffffffffffffffff161415610ba4576040517f08c379a0000000000000000000000000000000000000000000000000000000008152600401610b9b90611862565b60405180910390fd5b610bad816111f0565b50565b600033905090565b600073ffffffffffffffffffffffffffffffffffffffff168373ffffffffffffffffffffffffffffffffffffffff161415610c28576040517f08c379a0000000000000000000000000000000000000000000000000000000008152600401610c1f90611942565b60405180910390fd5b600073ffffffffffffffffffffffffffffffffffffffff168273ffffffffffffffffffffffffffffffffffffffff161415610c98576040517f08c379a0000000000000000000000000000000000000000000000000000000008152600401610c8f90611882565b60405180910390fd5b80600160008573ffffffffffffffffffffffffffffffffffffffff1673ffffffffffffffffffffffffffffffffffffffff16815260200190815260200160002060008473ffffffffffffffffffffffffffffffffffffffff1673ffffffffffffffffffffffffffffffffffffffff168152602001908152602001600020819055508173ffffffffffffffffffffffffffffffffffffffff168373ffffffffffffffffffffffffffffffffffffffff167f8c5be1e5ebec7d5bd14f71427d1e84f3dd0314c0f7b2291e5b200ac8c7c3b92583604051610d7691906119a2565b60405180910390a3505050565b6000610d8f8484610a31565b90507fffffffffffffffffffffffffffffffffffffffffffffffffffffffffffffffff8114610e095781811015610dfb576040517f08c379a0000000000000000000000000000000000000000000000000000000008152600401610df2906118a2565b60405180910390fd5b610e088484848403610bb8565b5b50505050565b600073ffffffffffffffffffffffffffffffffffffffff168373ffffffffffffffffffffffffffffffffffffffff161415610e7f576040517f08c379a0000000000000000000000000000000000000000000000000000000008152600401610e7690611922565b60405180910390fd5b600073ffffffffffffffffffffffffffffffffffffffff168273ffffffffffffffffffffffffffffffffffffffff161415610eef576040517f08c379a0000000000000000000000000000000000000000000000000000000008152600401610ee690611822565b60405180910390fd5b610efa83838361148d565b60008060008573ffffffffffffffffffffffffffffffffffffffff1673ffffffffffffffffffffffffffffffffffffffff16815260200190815260200160002054905081811015610f80576040517f08c379a0000000000000000000000000000000000000000000000000000000008152600401610f77906118c2565b60405180910390fd5b8181036000808673ffffffffffffffffffffffffffffffffffffffff1673ffffffffffffffffffffffffffffffffffffffff16815260200190815260200160002081905550816000808573ffffffffffffffffffffffffffffffffffffffff1673ffffffffffffffffffffffffffffffffffffffff168152602001908152602001600020600082825461101391906119f4565b925050819055508273ffffffffffffffffffffffffffffffffffffffff168473ffffffffffffffffffffffffffffffffffffffff167fddf252ad1be2c89b69c2b068fc378daa952ba7f163c4a11628f55a4df523b3ef8460405161107791906119a2565b60405180910390a361108a848484611492565b50505050565b600073ffffffffffffffffffffffffffffffffffffffff168273ffffffffffffffffffffffffffffffffffffffff161415611100576040517f08c379a00000000000000000000000000000000000000000000000000000000081526004016110f790611982565b60405180910390fd5b61110c6000838361148d565b806002600082825461111e91906119f4565b92505081905550806000808473ffffffffffffffffffffffffffffffffffffffff1673ffffffffffffffffffffffffffffffffffffffff168152602001908152602001600020600082825461117391906119f4565b925050819055508173ffffffffffffffffffffffffffffffffffffffff16600073ffffffffffffffffffffffffffffffffffffffff167fddf252ad1be2c89b69c2b068fc378daa952ba7f163c4a11628f55a4df523b3ef836040516111d891906119a2565b60405180910390a36111ec60008383611492565b5050565b6000600560009054906101000a900473ffffffffffffffffffffffffffffffffffffffff16905081600560006101000a81548173ffffffffffffffffffffffffffffffffffffffff021916908373ffffffffffffffffffffffffffffffffffffffff1602179055508173ffffffffffffffffffffffffffffffffffffffff168173ffffffffffffffffffffffffffffffffffffffff167f8be0079c531659141344cd1fd0a4f28419497f9722a3daafe3b4186f6b6457e060405160405180910390a35050565b600073ffffffffffffffffffffffffffffffffffffffff168273ffffffffffffffffffffffffffffffffffffffff161415611326576040517f08c379a000000000000000000000000000000000000000000000000000000000815260040161131d90611902565b60405180910390fd5b6113328260008361148d565b60008060008473ffffffffffffffffffffffffffffffffffffffff1673ffffffffffffffffffffffffffffffffffffffff168152602001908152602001600020549050818110156113b8576040517f08c379a00000000000000000000000000000000000000000000000000000000081526004016113af90611842565b60405180910390fd5b8181036000808573ffffffffffffffffffffffffffffffffffffffff1673ffffffffffffffffffffffffffffffffffffffff16815260200190815260200160002081905550816002600082825461140f9190611a4a565b92505081905550600073ffffffffffffffffffffffffffffffffffffffff168373ffffffffffffffffffffffffffffffffffffffff167fddf252ad1be2c89b69c2b068fc378daa952ba7f163c4a11628f55a4df523b3ef8460405161147491906119a2565b60405180910390a361148883600084611492565b505050565b505050565b505050565b6000813590506114a681611ee9565b92915050565b6000813590506114bb81611f00565b92915050565b6000602082840312156114d357600080fd5b60006114e184828501611497565b91505092915050565b600080604083850312156114fd57600080fd5b600061150b85828601611497565b925050602061151c85828601611497565b9150509250929050565b60008060006060848603121561153b57600080fd5b600061154986828701611497565b935050602061155a86828701611497565b925050604061156b868287016114ac565b9150509250925092565b6000806040838503121561158857600080fd5b600061159685828601611497565b92505060206115a7858286016114ac565b9150509250929050565b6115ba81611a7e565b82525050565b6115c981611a90565b82525050565b60006115da826119d8565b6115e481856119e3565b93506115f4818560208601611ad3565b6115fd81611b96565b840191505092915050565b60006116156023836119e3565b915061162082611ba7565b604082019050919050565b60006116386022836119e3565b915061164382611bf6565b604082019050919050565b600061165b6026836119e3565b915061166682611c45565b604082019050919050565b600061167e6022836119e3565b915061168982611c94565b604082019050919050565b60006116a1601d836119e3565b91506116ac82611ce3565b602082019050919050565b60006116c46026836119e3565b91506116cf82611d0c565b604082019050919050565b60006116e76020836119e3565b91506116f282611d5b565b602082019050919050565b600061170a6021836119e3565b915061171582611d84565b604082019050919050565b600061172d6025836119e3565b915061173882611dd3565b604082019050919050565b60006117506024836119e3565b915061175b82611e22565b604082019050919050565b60006117736025836119e3565b915061177e82611e71565b604082019050919050565b6000611796601f836119e3565b91506117a182611ec0565b602082019050919050565b6117b581611abc565b82525050565b6117c481611ac6565b82525050565b60006020820190506117df60008301846115b1565b92915050565b60006020820190506117fa60008301846115c0565b92915050565b6000602082019050818103600083015261181a81846115cf565b905092915050565b6000602082019050818103600083015261183b81611608565b9050919050565b6000602082019050818103600083015261185b8161162b565b9050919050565b6000602082019050818103600083015261187b8161164e565b9050919050565b6000602082019050818103600083015261189b81611671565b9050919050565b600060208201905081810360008301526118bb81611694565b9050919050565b600060208201905081810360008301526118db816116b7565b9050919050565b600060208201905081810360008301526118fb816116da565b9050919050565b6000602082019050818103600083015261191b816116fd565b9050919050565b6000602082019050818103600083015261193b81611720565b9050919050565b6000602082019050818103600083015261195b81611743565b9050919050565b6000602082019050818103600083015261197b81611766565b9050919050565b6000602082019050818103600083015261199b81611789565b9050919050565b60006020820190506119b760008301846117ac565b92915050565b60006020820190506119d260008301846117bb565b92915050565b600081519050919050565b600082825260208201905092915050565b60006119ff82611abc565b9150611a0a83611abc565b9250827fffffffffffffffffffffffffffffffffffffffffffffffffffffffffffffffff03821115611a3f57611a3e611b38565b5b828201905092915050565b6000611a5582611abc565b9150611a6083611abc565b925082821015611a7357611a72611b38565b5b828203905092915050565b6000611a8982611a9c565b9050919050565b60008115159050919050565b600073ffffffffffffffffffffffffffffffffffffffff82169050919050565b6000819050919050565b600060ff82169050919050565b60005b83811015611af1578082015181840152602081019050611ad6565b83811115611b00576000848401525b50505050565b60006002820490506001821680611b1e57607f821691505b60208210811415611b3257611b31611b67565b5b50919050565b7f4e487b7100000000000000000000000000000000000000000000000000000000600052601160045260246000fd5b7f4e487b7100000000000000000000000000000000000000000000000000000000600052602260045260246000fd5b6000601f19601f8301169050919050565b7f45524332303a207472616e7366657220746f20746865207a65726f206164647260008201527f6573730000000000000000000000000000000000000000000000000000000000602082015250565b7f45524332303a206275726e20616d6f756e7420657863656564732062616c616e60008201527f6365000000000000000000000000000000000000000000000000000000000000602082015250565b7f4f776e61626c653a206e6577206f776e657220697320746865207a65726f206160008201527f6464726573730000000000000000000000000000000000000000000000000000602082015250565b7f45524332303a20617070726f766520746f20746865207a65726f20616464726560008201527f7373000000000000000000000000000000000000000000000000000000000000602082015250565b7f45524332303a20696e73756666696369656e7420616c6c6f77616e6365000000600082015250565b7f45524332303a207472616e7366657220616d6f756e742065786365656473206260008201527f616c616e63650000000000000000000000000000000000000000000000000000602082015250565b7f4f776e61626c653a2063616c6c6572206973206e6f7420746865206f776e6572600082015250565b7f45524332303a206275726e2066726f6d20746865207a65726f2061646472657360008201527f7300000000000000000000000000000000000000000000000000000000000000602082015250565b7f45524332303a207472616e736665722066726f6d20746865207a65726f20616460008201527f6472657373000000000000000000000000000000000000000000000000000000602082015250565b7f45524332303a20617070726f76652066726f6d20746865207a65726f2061646460008201527f7265737300000000000000000000000000000000000000000000000000000000602082015250565b7f45524332303a2064656372656173656420616c6c6f77616e63652062656c6f7760008201527f207a65726f000000000000000000000000000000000000000000000000000000602082015250565b7f45524332303a206d696e7420746f20746865207a65726f206164647265737300600082015250565b611ef281611a7e565b8114611efd57600080fd5b50565b611f0981611abc565b8114611f1457600080fd5b5056fea2646970667358221220dd07de2ed11252f92046ce02f516398af77dc5f6bba5b7eef372f869f14d089c64736f6c63430008040033",
  "linkReferences": {},
  "deployedLinkReferences": {}
}