{
  "_format": "hh-sol-artifact-1",
  "contractName": "Atlantis",
  "sourceName": "contracts/AtlantisToken.sol",
  "abi": [
    {
      "inputs": [],
      "stateMutability": "nonpayable",
      "type": "constructor"
    },
    {
      "inputs": [],
      "name": "NotDistributionContractAddress",
      "type": "error"
    },
    {
      "anonymous": false,
      "inputs": [
        {
          "indexed": true,
          "internalType": "address",
          "name": "owner",
          "type": "address"
        },
        {
          "indexed": true,
          "internalType": "address",
          "name": "spender",
          "type": "address"
        },
        {
          "indexed": false,
          "internalType": "uint256",
          "name": "value",
          "type": "uint256"
        }
      ],
      "name": "Approval",
      "type": "event"
    },
    {
      "anonymous": false,
      "inputs": [
        {
          "indexed": true,
          "internalType": "address",
          "name": "previousOwner",
          "type": "address"
        },
        {
          "indexed": true,
          "internalType": "address",
          "name": "newOwner",
          "type": "address"
        }
      ],
      "name": "OwnershipTransferred",
      "type": "event"
    },
    {
      "anonymous": false,
      "inputs": [
        {
          "indexed": true,
          "internalType": "address",
          "name": "",
          "type": "address"
        }
      ],
      "name": "SetDistributionContractAddress",
      "type": "event"
    },
    {
      "anonymous": false,
      "inputs": [
        {
          "indexed": true,
          "internalType": "address",
          "name": "from",
          "type": "address"
        },
        {
          "indexed": true,
          "internalType": "address",
          "name": "to",
          "type": "address"
        },
        {
          "indexed": false,
          "internalType": "uint256",
          "name": "value",
          "type": "uint256"
        }
      ],
      "name": "Transfer",
      "type": "event"
    },
    {
      "inputs": [
        {
          "internalType": "address",
          "name": "owner",
          "type": "address"
        },
        {
          "internalType": "address",
          "name": "spender",
          "type": "address"
        }
      ],
      "name": "allowance",
      "outputs": [
        {
          "internalType": "uint256",
          "name": "",
          "type": "uint256"
        }
      ],
      "stateMutability": "view",
      "type": "function"
    },
    {
      "inputs": [
        {
          "internalType": "address",
          "name": "spender",
          "type": "address"
        },
        {
          "internalType": "uint256",
          "name": "amount",
          "type": "uint256"
        }
      ],
      "name": "approve",
      "outputs": [
        {
          "internalType": "bool",
          "name": "",
          "type": "bool"
        }
      ],
      "stateMutability": "nonpayable",
      "type": "function"
    },
    {
      "inputs": [
        {
          "internalType": "address",
          "name": "account",
          "type": "address"
        }
      ],
      "name": "balanceOf",
      "outputs": [
        {
          "internalType": "uint256",
          "name": "",
          "type": "uint256"
        }
      ],
      "stateMutability": "view",
      "type": "function"
    },
    {
      "inputs": [
        {
          "internalType": "address",
          "name": "account",
          "type": "address"
        },
        {
          "internalType": "uint256",
          "name": "amount",
          "type": "uint256"
        }
      ],
      "name": "burn",
      "outputs": [],
      "stateMutability": "nonpayable",
      "type": "function"
    },
    {
      "inputs": [],
      "name": "decimals",
      "outputs": [
        {
          "internalType": "uint8",
          "name": "",
          "type": "uint8"
        }
      ],
      "stateMutability": "view",
      "type": "function"
    },
    {
      "inputs": [
        {
          "internalType": "address",
          "name": "spender",
          "type": "address"
        },
        {
          "internalType": "uint256",
          "name": "subtractedValue",
          "type": "uint256"
        }
      ],
      "name": "decreaseAllowance",
      "outputs": [
        {
          "internalType": "bool",
          "name": "",
          "type": "bool"
        }
      ],
      "stateMutability": "nonpayable",
      "type": "function"
    },
    {
      "inputs": [],
      "name": "distributionContract",
      "outputs": [
        {
          "internalType": "address",
          "name": "",
          "type": "address"
        }
      ],
      "stateMutability": "view",
      "type": "function"
    },
    {
      "inputs": [
        {
          "internalType": "address",
          "name": "spender",
          "type": "address"
        },
        {
          "internalType": "uint256",
          "name": "addedValue",
          "type": "uint256"
        }
      ],
      "name": "increaseAllowance",
      "outputs": [
        {
          "internalType": "bool",
          "name": "",
          "type": "bool"
        }
      ],
      "stateMutability": "nonpayable",
      "type": "function"
    },
    {
      "inputs": [],
      "name": "name",
      "outputs": [
        {
          "internalType": "string",
          "name": "",
          "type": "string"
        }
      ],
      "stateMutability": "view",
      "type": "function"
    },
    {
      "inputs": [],
      "name": "owner",
      "outputs": [
        {
          "internalType": "address",
          "name": "",
          "type": "address"
        }
      ],
      "stateMutability": "view",
      "type": "function"
    },
    {
      "inputs": [],
      "name": "renounceOwnership",
      "outputs": [],
      "stateMutability": "nonpayable",
      "type": "function"
    },
    {
      "inputs": [
        {
          "internalType": "address",
          "name": "_distributionContract",
          "type": "address"
        }
      ],
      "name": "setDistributionContractAddress",
      "outputs": [],
      "stateMutability": "nonpayable",
      "type": "function"
    },
    {
      "inputs": [],
      "name": "symbol",
      "outputs": [
        {
          "internalType": "string",
          "name": "",
          "type": "string"
        }
      ],
      "stateMutability": "view",
      "type": "function"
    },
    {
      "inputs": [],
      "name": "totalSupply",
      "outputs": [
        {
          "internalType": "uint256",
          "name": "",
          "type": "uint256"
        }
      ],
      "stateMutability": "view",
      "type": "function"
    },
    {
      "inputs": [
        {
          "internalType": "address",
          "name": "to",
          "type": "address"
        },
        {
          "internalType": "uint256",
          "name": "amount",
          "type": "uint256"
        }
      ],
      "name": "transfer",
      "outputs": [
        {
          "internalType": "bool",
          "name": "",
          "type": "bool"
        }
      ],
      "stateMutability": "nonpayable",
      "type": "function"
    },
    {
      "inputs": [
        {
          "internalType": "address",
          "name": "from",
          "type": "address"
        },
        {
          "internalType": "address",
          "name": "to",
          "type": "address"
        },
        {
          "internalType": "uint256",
          "name": "amount",
          "type": "uint256"
        }
      ],
      "name": "transferFrom",
      "outputs": [
        {
          "internalType": "bool",
          "name": "",
          "type": "bool"
        }
      ],
      "stateMutability": "nonpayable",
      "type": "function"
    },
    {
      "inputs": [
        {
          "internalType": "address",
          "name": "newOwner",
          "type": "address"
        }
      ],
      "name": "transferOwnership",
      "outputs": [],
      "stateMutability": "nonpayable",
      "type": "function"
    }
  ],
  "bytecode": "0x60806040523480156200001157600080fd5b506040518060400160405280600881526020017f41746c616e7469730000000000000000000000000000000000000000000000008152506040518060400160405280600381526020017f414c540000000000000000000000000000000000000000000000000000000000815250816003908051906020019062000096929190620001a6565b508060049080519060200190620000af929190620001a6565b505050620000d2620000c6620000d860201b60201c565b620000e060201b60201c565b620002bb565b600033905090565b6000600560009054906101000a900473ffffffffffffffffffffffffffffffffffffffff16905081600560006101000a81548173ffffffffffffffffffffffffffffffffffffffff021916908373ffffffffffffffffffffffffffffffffffffffff1602179055508173ffffffffffffffffffffffffffffffffffffffff168173ffffffffffffffffffffffffffffffffffffffff167f8be0079c531659141344cd1fd0a4f28419497f9722a3daafe3b4186f6b6457e060405160405180910390a35050565b828054620001b49062000256565b90600052602060002090601f016020900481019282620001d8576000855562000224565b82601f10620001f357805160ff191683800117855562000224565b8280016001018555821562000224579182015b828111156200022357825182559160200191906001019062000206565b5b50905062000233919062000237565b5090565b5b808211156200025257600081600090555060010162000238565b5090565b600060028204905060018216806200026f57607f821691505b602082108114156200028657620002856200028c565b5b50919050565b7f4e487b7100000000000000000000000000000000000000000000000000000000600052602260045260246000fd5b611cc580620002cb6000396000f3fe608060405234801561001057600080fd5b506004361061010b5760003560e01c806370a08231116100a25780639dc29fac116100715780639dc29fac146102aa578063a457c2d7146102c6578063a9059cbb146102f6578063dd62ed3e14610326578063f2fde38b146103565761010b565b806370a0823114610234578063715018a6146102645780638da5cb5b1461026e57806395d89b411461028c5761010b565b806323b872dd116100de57806323b872dd14610198578063313ce567146101c857806339509351146101e65780635a4528c2146102165761010b565b806306fdde0314610110578063095ea7b31461012e57806318160ddd1461015e5780631efe6a101461017c575b600080fd5b610118610372565b60405161012591906115c1565b60405180910390f35b61014860048036038101906101439190611359565b610404565b60405161015591906115a6565b60405180910390f35b610166610427565b6040516101739190611743565b60405180910390f35b610196600480360381019061019191906112a5565b610431565b005b6101b260048036038101906101ad919061130a565b610534565b6040516101bf91906115a6565b60405180910390f35b6101d0610563565b6040516101dd919061175e565b60405180910390f35b61020060048036038101906101fb9190611359565b61056c565b60405161020d91906115a6565b60405180910390f35b61021e610616565b60405161022b919061158b565b60405180910390f35b61024e600480360381019061024991906112a5565b61063c565b60405161025b9190611743565b60405180910390f35b61026c610684565b005b61027661070c565b604051610283919061158b565b60405180910390f35b610294610736565b6040516102a191906115c1565b60405180910390f35b6102c460048036038101906102bf9190611359565b6107c8565b005b6102e060048036038101906102db9190611359565b610868565b6040516102ed91906115a6565b60405180910390f35b610310600480360381019061030b9190611359565b610952565b60405161031d91906115a6565b60405180910390f35b610340600480360381019061033b91906112ce565b610975565b60405161034d9190611743565b60405180910390f35b610370600480360381019061036b91906112a5565b6109fc565b005b606060038054610381906118a7565b80601f01602080910402602001604051908101604052809291908181526020018280546103ad906118a7565b80156103fa5780601f106103cf576101008083540402835291602001916103fa565b820191906000526020600020905b8154815290600101906020018083116103dd57829003601f168201915b5050505050905090565b60008061040f610af4565b905061041c818585610afc565b600191505092915050565b6000600254905090565b610439610af4565b73ffffffffffffffffffffffffffffffffffffffff1661045761070c565b73ffffffffffffffffffffffffffffffffffffffff16146104ad576040517f08c379a00000000000000000000000000000000000000000000000000000000081526004016104a4906116a3565b60405180910390fd5b80600660006101000a81548173ffffffffffffffffffffffffffffffffffffffff021916908373ffffffffffffffffffffffffffffffffffffffff1602179055503373ffffffffffffffffffffffffffffffffffffffff167f27d77941b1e60a23f325c792ac6e98bf10a556e7be9e96491321a61e90410bce60405160405180910390a250565b60008061053f610af4565b905061054c858285610cc7565b610557858585610d53565b60019150509392505050565b60006012905090565b600080610577610af4565b905061060b818585600160008673ffffffffffffffffffffffffffffffffffffffff1673ffffffffffffffffffffffffffffffffffffffff16815260200190815260200160002060008973ffffffffffffffffffffffffffffffffffffffff1673ffffffffffffffffffffffffffffffffffffffff168152602001908152602001600020546106069190611795565b610afc565b600191505092915050565b600660009054906101000a900473ffffffffffffffffffffffffffffffffffffffff1681565b60008060008373ffffffffffffffffffffffffffffffffffffffff1673ffffffffffffffffffffffffffffffffffffffff168152602001908152602001600020549050919050565b61068c610af4565b73ffffffffffffffffffffffffffffffffffffffff166106aa61070c565b73ffffffffffffffffffffffffffffffffffffffff1614610700576040517f08c379a00000000000000000000000000000000000000000000000000000000081526004016106f7906116a3565b60405180910390fd5b61070a6000610fd4565b565b6000600560009054906101000a900473ffffffffffffffffffffffffffffffffffffffff16905090565b606060048054610745906118a7565b80601f0160208091040260200160405190810160405280929190818152602001828054610771906118a7565b80156107be5780601f10610793576101008083540402835291602001916107be565b820191906000526020600020905b8154815290600101906020018083116107a157829003601f168201915b5050505050905090565b600660009054906101000a900473ffffffffffffffffffffffffffffffffffffffff1673ffffffffffffffffffffffffffffffffffffffff163373ffffffffffffffffffffffffffffffffffffffff161461084f576040517f2772a14100000000000000000000000000000000000000000000000000000000815260040160405180910390fd5b61085a823383610cc7565b610864828261109a565b5050565b600080610873610af4565b90506000600160008373ffffffffffffffffffffffffffffffffffffffff1673ffffffffffffffffffffffffffffffffffffffff16815260200190815260200160002060008673ffffffffffffffffffffffffffffffffffffffff1673ffffffffffffffffffffffffffffffffffffffff16815260200190815260200160002054905083811015610939576040517f08c379a000000000000000000000000000000000000000000000000000000000815260040161093090611723565b60405180910390fd5b6109468286868403610afc565b60019250505092915050565b60008061095d610af4565b905061096a818585610d53565b600191505092915050565b6000600160008473ffffffffffffffffffffffffffffffffffffffff1673ffffffffffffffffffffffffffffffffffffffff16815260200190815260200160002060008373ffffffffffffffffffffffffffffffffffffffff1673ffffffffffffffffffffffffffffffffffffffff16815260200190815260200160002054905092915050565b610a04610af4565b73ffffffffffffffffffffffffffffffffffffffff16610a2261070c565b73ffffffffffffffffffffffffffffffffffffffff1614610a78576040517f08c379a0000000000000000000000000000000000000000000000000000000008152600401610a6f906116a3565b60405180910390fd5b600073ffffffffffffffffffffffffffffffffffffffff168173ffffffffffffffffffffffffffffffffffffffff161415610ae8576040517f08c379a0000000000000000000000000000000000000000000000000000000008152600401610adf90611623565b60405180910390fd5b610af181610fd4565b50565b600033905090565b600073ffffffffffffffffffffffffffffffffffffffff168373ffffffffffffffffffffffffffffffffffffffff161415610b6c576040517f08c379a0000000000000000000000000000000000000000000000000000000008152600401610b6390611703565b60405180910390fd5b600073ffffffffffffffffffffffffffffffffffffffff168273ffffffffffffffffffffffffffffffffffffffff161415610bdc576040517f08c379a0000000000000000000000000000000000000000000000000000000008152600401610bd390611643565b60405180910390fd5b80600160008573ffffffffffffffffffffffffffffffffffffffff1673ffffffffffffffffffffffffffffffffffffffff16815260200190815260200160002060008473ffffffffffffffffffffffffffffffffffffffff1673ffffffffffffffffffffffffffffffffffffffff168152602001908152602001600020819055508173ffffffffffffffffffffffffffffffffffffffff168373ffffffffffffffffffffffffffffffffffffffff167f8c5be1e5ebec7d5bd14f71427d1e84f3dd0314c0f7b2291e5b200ac8c7c3b92583604051610cba9190611743565b60405180910390a3505050565b6000610cd38484610975565b90507fffffffffffffffffffffffffffffffffffffffffffffffffffffffffffffffff8114610d4d5781811015610d3f576040517f08c379a0000000000000000000000000000000000000000000000000000000008152600401610d3690611663565b60405180910390fd5b610d4c8484848403610afc565b5b50505050565b600073ffffffffffffffffffffffffffffffffffffffff168373ffffffffffffffffffffffffffffffffffffffff161415610dc3576040517f08c379a0000000000000000000000000000000000000000000000000000000008152600401610dba906116e3565b60405180910390fd5b600073ffffffffffffffffffffffffffffffffffffffff168273ffffffffffffffffffffffffffffffffffffffff161415610e33576040517f08c379a0000000000000000000000000000000000000000000000000000000008152600401610e2a906115e3565b60405180910390fd5b610e3e838383611271565b60008060008573ffffffffffffffffffffffffffffffffffffffff1673ffffffffffffffffffffffffffffffffffffffff16815260200190815260200160002054905081811015610ec4576040517f08c379a0000000000000000000000000000000000000000000000000000000008152600401610ebb90611683565b60405180910390fd5b8181036000808673ffffffffffffffffffffffffffffffffffffffff1673ffffffffffffffffffffffffffffffffffffffff16815260200190815260200160002081905550816000808573ffffffffffffffffffffffffffffffffffffffff1673ffffffffffffffffffffffffffffffffffffffff1681526020019081526020016000206000828254610f579190611795565b925050819055508273ffffffffffffffffffffffffffffffffffffffff168473ffffffffffffffffffffffffffffffffffffffff167fddf252ad1be2c89b69c2b068fc378daa952ba7f163c4a11628f55a4df523b3ef84604051610fbb9190611743565b60405180910390a3610fce848484611276565b50505050565b6000600560009054906101000a900473ffffffffffffffffffffffffffffffffffffffff16905081600560006101000a81548173ffffffffffffffffffffffffffffffffffffffff021916908373ffffffffffffffffffffffffffffffffffffffff1602179055508173ffffffffffffffffffffffffffffffffffffffff168173ffffffffffffffffffffffffffffffffffffffff167f8be0079c531659141344cd1fd0a4f28419497f9722a3daafe3b4186f6b6457e060405160405180910390a35050565b600073ffffffffffffffffffffffffffffffffffffffff168273ffffffffffffffffffffffffffffffffffffffff16141561110a576040517f08c379a0000000000000000000000000000000000000000000000000000000008152600401611101906116c3565b60405180910390fd5b61111682600083611271565b60008060008473ffffffffffffffffffffffffffffffffffffffff1673ffffffffffffffffffffffffffffffffffffffff1681526020019081526020016000205490508181101561119c576040517f08c379a000000000000000000000000000000000000000000000000000000000815260040161119390611603565b60405180910390fd5b8181036000808573ffffffffffffffffffffffffffffffffffffffff1673ffffffffffffffffffffffffffffffffffffffff1681526020019081526020016000208190555081600260008282546111f391906117eb565b92505081905550600073ffffffffffffffffffffffffffffffffffffffff168373ffffffffffffffffffffffffffffffffffffffff167fddf252ad1be2c89b69c2b068fc378daa952ba7f163c4a11628f55a4df523b3ef846040516112589190611743565b60405180910390a361126c83600084611276565b505050565b505050565b505050565b60008135905061128a81611c61565b92915050565b60008135905061129f81611c78565b92915050565b6000602082840312156112b757600080fd5b60006112c58482850161127b565b91505092915050565b600080604083850312156112e157600080fd5b60006112ef8582860161127b565b92505060206113008582860161127b565b9150509250929050565b60008060006060848603121561131f57600080fd5b600061132d8682870161127b565b935050602061133e8682870161127b565b925050604061134f86828701611290565b9150509250925092565b6000806040838503121561136c57600080fd5b600061137a8582860161127b565b925050602061138b85828601611290565b9150509250929050565b61139e8161181f565b82525050565b6113ad81611831565b82525050565b60006113be82611779565b6113c88185611784565b93506113d8818560208601611874565b6113e181611937565b840191505092915050565b60006113f9602383611784565b915061140482611948565b604082019050919050565b600061141c602283611784565b915061142782611997565b604082019050919050565b600061143f602683611784565b915061144a826119e6565b604082019050919050565b6000611462602283611784565b915061146d82611a35565b604082019050919050565b6000611485601d83611784565b915061149082611a84565b602082019050919050565b60006114a8602683611784565b91506114b382611aad565b604082019050919050565b60006114cb602083611784565b91506114d682611afc565b602082019050919050565b60006114ee602183611784565b91506114f982611b25565b604082019050919050565b6000611511602583611784565b915061151c82611b74565b604082019050919050565b6000611534602483611784565b915061153f82611bc3565b604082019050919050565b6000611557602583611784565b915061156282611c12565b604082019050919050565b6115768161185d565b82525050565b61158581611867565b82525050565b60006020820190506115a06000830184611395565b92915050565b60006020820190506115bb60008301846113a4565b92915050565b600060208201905081810360008301526115db81846113b3565b905092915050565b600060208201905081810360008301526115fc816113ec565b9050919050565b6000602082019050818103600083015261161c8161140f565b9050919050565b6000602082019050818103600083015261163c81611432565b9050919050565b6000602082019050818103600083015261165c81611455565b9050919050565b6000602082019050818103600083015261167c81611478565b9050919050565b6000602082019050818103600083015261169c8161149b565b9050919050565b600060208201905081810360008301526116bc816114be565b9050919050565b600060208201905081810360008301526116dc816114e1565b9050919050565b600060208201905081810360008301526116fc81611504565b9050919050565b6000602082019050818103600083015261171c81611527565b9050919050565b6000602082019050818103600083015261173c8161154a565b9050919050565b6000602082019050611758600083018461156d565b92915050565b6000602082019050611773600083018461157c565b92915050565b600081519050919050565b600082825260208201905092915050565b60006117a08261185d565b91506117ab8361185d565b9250827fffffffffffffffffffffffffffffffffffffffffffffffffffffffffffffffff038211156117e0576117df6118d9565b5b828201905092915050565b60006117f68261185d565b91506118018361185d565b925082821015611814576118136118d9565b5b828203905092915050565b600061182a8261183d565b9050919050565b60008115159050919050565b600073ffffffffffffffffffffffffffffffffffffffff82169050919050565b6000819050919050565b600060ff82169050919050565b60005b83811015611892578082015181840152602081019050611877565b838111156118a1576000848401525b50505050565b600060028204905060018216806118bf57607f821691505b602082108114156118d3576118d2611908565b5b50919050565b7f4e487b7100000000000000000000000000000000000000000000000000000000600052601160045260246000fd5b7f4e487b7100000000000000000000000000000000000000000000000000000000600052602260045260246000fd5b6000601f19601f8301169050919050565b7f45524332303a207472616e7366657220746f20746865207a65726f206164647260008201527f6573730000000000000000000000000000000000000000000000000000000000602082015250565b7f45524332303a206275726e20616d6f756e7420657863656564732062616c616e60008201527f6365000000000000000000000000000000000000000000000000000000000000602082015250565b7f4f776e61626c653a206e6577206f776e657220697320746865207a65726f206160008201527f6464726573730000000000000000000000000000000000000000000000000000602082015250565b7f45524332303a20617070726f766520746f20746865207a65726f20616464726560008201527f7373000000000000000000000000000000000000000000000000000000000000602082015250565b7f45524332303a20696e73756666696369656e7420616c6c6f77616e6365000000600082015250565b7f45524332303a207472616e7366657220616d6f756e742065786365656473206260008201527f616c616e63650000000000000000000000000000000000000000000000000000602082015250565b7f4f776e61626c653a2063616c6c6572206973206e6f7420746865206f776e6572600082015250565b7f45524332303a206275726e2066726f6d20746865207a65726f2061646472657360008201527f7300000000000000000000000000000000000000000000000000000000000000602082015250565b7f45524332303a207472616e736665722066726f6d20746865207a65726f20616460008201527f6472657373000000000000000000000000000000000000000000000000000000602082015250565b7f45524332303a20617070726f76652066726f6d20746865207a65726f2061646460008201527f7265737300000000000000000000000000000000000000000000000000000000602082015250565b7f45524332303a2064656372656173656420616c6c6f77616e63652062656c6f7760008201527f207a65726f000000000000000000000000000000000000000000000000000000602082015250565b611c6a8161181f565b8114611c7557600080fd5b50565b611c818161185d565b8114611c8c57600080fd5b5056fea26469706673582212208af2dd4bbc24c8841063cb9f0f8411f0ff8b5530cbde6becfb4a03b06274367764736f6c63430008040033",
  "linkReferences": {},
  "deployedLinkReferences": {}
}