{
  "_format": "hh-sol-artifact-1",
  "contractName": "Atlantis",
  "sourceName": "contracts/AtlantisToken.sol",
  "abi": [
    {
      "inputs": [],
      "stateMutability": "nonpayable",
      "type": "constructor"
    },
    {
      "inputs": [],
      "name": "NotDistributionContractAddress",
      "type": "error"
    },
    {
      "inputs": [],
      "name": "NotServiceContractAddress",
      "type": "error"
    },
    {
      "anonymous": false,
      "inputs": [
        {
          "indexed": true,
          "internalType": "address",
          "name": "owner",
          "type": "address"
        },
        {
          "indexed": true,
          "internalType": "address",
          "name": "spender",
          "type": "address"
        },
        {
          "indexed": false,
          "internalType": "uint256",
          "name": "value",
          "type": "uint256"
        }
      ],
      "name": "Approval",
      "type": "event"
    },
    {
      "anonymous": false,
      "inputs": [
        {
          "indexed": true,
          "internalType": "address",
          "name": "previousOwner",
          "type": "address"
        },
        {
          "indexed": true,
          "internalType": "address",
          "name": "newOwner",
          "type": "address"
        }
      ],
      "name": "OwnershipTransferred",
      "type": "event"
    },
    {
      "anonymous": false,
      "inputs": [
        {
          "indexed": true,
          "internalType": "address",
          "name": "",
          "type": "address"
        }
      ],
      "name": "SetDistributionContractAddress",
      "type": "event"
    },
    {
      "anonymous": false,
      "inputs": [
        {
          "indexed": true,
          "internalType": "address",
          "name": "",
          "type": "address"
        }
      ],
      "name": "SetServiceContractAddress",
      "type": "event"
    },
    {
      "anonymous": false,
      "inputs": [
        {
          "indexed": true,
          "internalType": "address",
          "name": "from",
          "type": "address"
        },
        {
          "indexed": true,
          "internalType": "address",
          "name": "to",
          "type": "address"
        },
        {
          "indexed": false,
          "internalType": "uint256",
          "name": "value",
          "type": "uint256"
        }
      ],
      "name": "Transfer",
      "type": "event"
    },
    {
      "inputs": [
        {
          "internalType": "address",
          "name": "owner",
          "type": "address"
        },
        {
          "internalType": "address",
          "name": "spender",
          "type": "address"
        }
      ],
      "name": "allowance",
      "outputs": [
        {
          "internalType": "uint256",
          "name": "",
          "type": "uint256"
        }
      ],
      "stateMutability": "view",
      "type": "function"
    },
    {
      "inputs": [
        {
          "internalType": "address",
          "name": "spender",
          "type": "address"
        },
        {
          "internalType": "uint256",
          "name": "amount",
          "type": "uint256"
        }
      ],
      "name": "approve",
      "outputs": [
        {
          "internalType": "bool",
          "name": "",
          "type": "bool"
        }
      ],
      "stateMutability": "nonpayable",
      "type": "function"
    },
    {
      "inputs": [
        {
          "internalType": "address",
          "name": "account",
          "type": "address"
        }
      ],
      "name": "balanceOf",
      "outputs": [
        {
          "internalType": "uint256",
          "name": "",
          "type": "uint256"
        }
      ],
      "stateMutability": "view",
      "type": "function"
    },
    {
      "inputs": [
        {
          "internalType": "uint256",
          "name": "_amount",
          "type": "uint256"
        }
      ],
      "name": "burn",
      "outputs": [],
      "stateMutability": "nonpayable",
      "type": "function"
    },
    {
      "inputs": [],
      "name": "decimals",
      "outputs": [
        {
          "internalType": "uint8",
          "name": "",
          "type": "uint8"
        }
      ],
      "stateMutability": "view",
      "type": "function"
    },
    {
      "inputs": [
        {
          "internalType": "address",
          "name": "spender",
          "type": "address"
        },
        {
          "internalType": "uint256",
          "name": "subtractedValue",
          "type": "uint256"
        }
      ],
      "name": "decreaseAllowance",
      "outputs": [
        {
          "internalType": "bool",
          "name": "",
          "type": "bool"
        }
      ],
      "stateMutability": "nonpayable",
      "type": "function"
    },
    {
      "inputs": [],
      "name": "distributionContract",
      "outputs": [
        {
          "internalType": "address",
          "name": "",
          "type": "address"
        }
      ],
      "stateMutability": "view",
      "type": "function"
    },
    {
      "inputs": [
        {
          "internalType": "address",
          "name": "spender",
          "type": "address"
        },
        {
          "internalType": "uint256",
          "name": "addedValue",
          "type": "uint256"
        }
      ],
      "name": "increaseAllowance",
      "outputs": [
        {
          "internalType": "bool",
          "name": "",
          "type": "bool"
        }
      ],
      "stateMutability": "nonpayable",
      "type": "function"
    },
    {
      "inputs": [
        {
          "internalType": "address",
          "name": "_account",
          "type": "address"
        },
        {
          "internalType": "uint256",
          "name": "_amount",
          "type": "uint256"
        }
      ],
      "name": "mint",
      "outputs": [],
      "stateMutability": "nonpayable",
      "type": "function"
    },
    {
      "inputs": [],
      "name": "name",
      "outputs": [
        {
          "internalType": "string",
          "name": "",
          "type": "string"
        }
      ],
      "stateMutability": "view",
      "type": "function"
    },
    {
      "inputs": [],
      "name": "owner",
      "outputs": [
        {
          "internalType": "address",
          "name": "",
          "type": "address"
        }
      ],
      "stateMutability": "view",
      "type": "function"
    },
    {
      "inputs": [],
      "name": "renounceOwnership",
      "outputs": [],
      "stateMutability": "nonpayable",
      "type": "function"
    },
    {
      "inputs": [
        {
          "internalType": "address",
          "name": "",
          "type": "address"
        }
      ],
      "name": "serviceContracts",
      "outputs": [
        {
          "internalType": "bool",
          "name": "",
          "type": "bool"
        }
      ],
      "stateMutability": "view",
      "type": "function"
    },
    {
      "inputs": [
        {
          "internalType": "address",
          "name": "_distributionContract",
          "type": "address"
        }
      ],
      "name": "setDistributionContractAddress",
      "outputs": [],
      "stateMutability": "nonpayable",
      "type": "function"
    },
    {
      "inputs": [
        {
          "internalType": "address",
          "name": "_serviceContract",
          "type": "address"
        }
      ],
      "name": "setServiceContractAddress",
      "outputs": [],
      "stateMutability": "nonpayable",
      "type": "function"
    },
    {
      "inputs": [],
      "name": "symbol",
      "outputs": [
        {
          "internalType": "string",
          "name": "",
          "type": "string"
        }
      ],
      "stateMutability": "view",
      "type": "function"
    },
    {
      "inputs": [],
      "name": "totalMinted",
      "outputs": [
        {
          "internalType": "uint256",
          "name": "",
          "type": "uint256"
        }
      ],
      "stateMutability": "view",
      "type": "function"
    },
    {
      "inputs": [],
      "name": "totalSupply",
      "outputs": [
        {
          "internalType": "uint256",
          "name": "",
          "type": "uint256"
        }
      ],
      "stateMutability": "view",
      "type": "function"
    },
    {
      "inputs": [
        {
          "internalType": "address",
          "name": "to",
          "type": "address"
        },
        {
          "internalType": "uint256",
          "name": "amount",
          "type": "uint256"
        }
      ],
      "name": "transfer",
      "outputs": [
        {
          "internalType": "bool",
          "name": "",
          "type": "bool"
        }
      ],
      "stateMutability": "nonpayable",
      "type": "function"
    },
    {
      "inputs": [
        {
          "internalType": "address",
          "name": "from",
          "type": "address"
        },
        {
          "internalType": "address",
          "name": "to",
          "type": "address"
        },
        {
          "internalType": "uint256",
          "name": "amount",
          "type": "uint256"
        }
      ],
      "name": "transferFrom",
      "outputs": [
        {
          "internalType": "bool",
          "name": "",
          "type": "bool"
        }
      ],
      "stateMutability": "nonpayable",
      "type": "function"
    },
    {
      "inputs": [
        {
          "internalType": "address",
          "name": "newOwner",
          "type": "address"
        }
      ],
      "name": "transferOwnership",
      "outputs": [],
      "stateMutability": "nonpayable",
      "type": "function"
    }
  ],
  "bytecode": "0x60806040523480156200001157600080fd5b506040518060400160405280600881526020017f41746c616e7469730000000000000000000000000000000000000000000000008152506040518060400160405280600381526020017f414c540000000000000000000000000000000000000000000000000000000000815250816003908051906020019062000096929190620001a6565b508060049080519060200190620000af929190620001a6565b505050620000d2620000c6620000d860201b60201c565b620000e060201b60201c565b620002bb565b600033905090565b6000600560009054906101000a900473ffffffffffffffffffffffffffffffffffffffff16905081600560006101000a81548173ffffffffffffffffffffffffffffffffffffffff021916908373ffffffffffffffffffffffffffffffffffffffff1602179055508173ffffffffffffffffffffffffffffffffffffffff168173ffffffffffffffffffffffffffffffffffffffff167f8be0079c531659141344cd1fd0a4f28419497f9722a3daafe3b4186f6b6457e060405160405180910390a35050565b828054620001b49062000256565b90600052602060002090601f016020900481019282620001d8576000855562000224565b82601f10620001f357805160ff191683800117855562000224565b8280016001018555821562000224579182015b828111156200022357825182559160200191906001019062000206565b5b50905062000233919062000237565b5090565b5b808211156200025257600081600090555060010162000238565b5090565b600060028204905060018216806200026f57607f821691505b602082108114156200028657620002856200028c565b5b50919050565b7f4e487b7100000000000000000000000000000000000000000000000000000000600052602260045260246000fd5b61214a80620002cb6000396000f3fe608060405234801561001057600080fd5b50600436106101375760003560e01c80635a4528c2116100b8578063a2309ff81161007c578063a2309ff81461033e578063a457c2d71461035c578063a9059cbb1461038c578063dd62ed3e146103bc578063f2fde38b146103ec578063ff13f6be1461040857610137565b80635a4528c2146102aa57806370a08231146102c8578063715018a6146102f85780638da5cb5b1461030257806395d89b411461032057610137565b806323b872dd116100ff57806323b872dd146101f4578063313ce56714610224578063395093511461024257806340c10f191461027257806342966c681461028e57610137565b806306fdde031461013c578063095ea7b31461015a5780630c98932a1461018a57806318160ddd146101ba5780631efe6a10146101d8575b600080fd5b610144610424565b60405161015191906119fd565b60405180910390f35b610174600480360381019061016f9190611749565b6104b6565b60405161018191906119e2565b60405180910390f35b6101a4600480360381019061019f9190611695565b6104d9565b6040516101b191906119e2565b60405180910390f35b6101c26104f9565b6040516101cf9190611b9f565b60405180910390f35b6101f260048036038101906101ed9190611695565b610503565b005b61020e600480360381019061020991906116fa565b610606565b60405161021b91906119e2565b60405180910390f35b61022c610635565b6040516102399190611bba565b60405180910390f35b61025c60048036038101906102579190611749565b61063e565b60405161026991906119e2565b60405180910390f35b61028c60048036038101906102879190611749565b6106e8565b005b6102a860048036038101906102a39190611785565b610796565b005b6102b2610826565b6040516102bf91906119c7565b60405180910390f35b6102e260048036038101906102dd9190611695565b61084c565b6040516102ef9190611b9f565b60405180910390f35b610300610894565b005b61030a61091c565b60405161031791906119c7565b60405180910390f35b610328610946565b60405161033591906119fd565b60405180910390f35b6103466109d8565b6040516103539190611b9f565b60405180910390f35b61037660048036038101906103719190611749565b6109de565b60405161038391906119e2565b60405180910390f35b6103a660048036038101906103a19190611749565b610ac8565b6040516103b391906119e2565b60405180910390f35b6103d660048036038101906103d191906116be565b610aeb565b6040516103e39190611b9f565b60405180910390f35b61040660048036038101906104019190611695565b610b72565b005b610422600480360381019061041d9190611695565b610c6a565b005b60606003805461043390611d03565b80601f016020809104026020016040519081016040528092919081815260200182805461045f90611d03565b80156104ac5780601f10610481576101008083540402835291602001916104ac565b820191906000526020600020905b81548152906001019060200180831161048f57829003601f168201915b5050505050905090565b6000806104c1610d84565b90506104ce818585610d8c565b600191505092915050565b60086020528060005260406000206000915054906101000a900460ff1681565b6000600254905090565b61050b610d84565b73ffffffffffffffffffffffffffffffffffffffff1661052961091c565b73ffffffffffffffffffffffffffffffffffffffff161461057f576040517f08c379a000000000000000000000000000000000000000000000000000000000815260040161057690611adf565b60405180910390fd5b80600660006101000a81548173ffffffffffffffffffffffffffffffffffffffff021916908373ffffffffffffffffffffffffffffffffffffffff1602179055503373ffffffffffffffffffffffffffffffffffffffff167f27d77941b1e60a23f325c792ac6e98bf10a556e7be9e96491321a61e90410bce60405160405180910390a250565b600080610611610d84565b905061061e858285610f57565b610629858585610fe3565b60019150509392505050565b60006012905090565b600080610649610d84565b90506106dd818585600160008673ffffffffffffffffffffffffffffffffffffffff1673ffffffffffffffffffffffffffffffffffffffff16815260200190815260200160002060008973ffffffffffffffffffffffffffffffffffffffff1673ffffffffffffffffffffffffffffffffffffffff168152602001908152602001600020546106d89190611bf1565b610d8c565b600191505092915050565b600660009054906101000a900473ffffffffffffffffffffffffffffffffffffffff1673ffffffffffffffffffffffffffffffffffffffff163373ffffffffffffffffffffffffffffffffffffffff161461076f576040517f2772a14100000000000000000000000000000000000000000000000000000000815260040160405180910390fd5b80600760008282546107819190611bf1565b925050819055506107928282611264565b5050565b600860003373ffffffffffffffffffffffffffffffffffffffff1673ffffffffffffffffffffffffffffffffffffffff16815260200190815260200160002060009054906101000a900460ff16610819576040517f6dd0b1d300000000000000000000000000000000000000000000000000000000815260040160405180910390fd5b61082333826113c4565b50565b600660009054906101000a900473ffffffffffffffffffffffffffffffffffffffff1681565b60008060008373ffffffffffffffffffffffffffffffffffffffff1673ffffffffffffffffffffffffffffffffffffffff168152602001908152602001600020549050919050565b61089c610d84565b73ffffffffffffffffffffffffffffffffffffffff166108ba61091c565b73ffffffffffffffffffffffffffffffffffffffff1614610910576040517f08c379a000000000000000000000000000000000000000000000000000000000815260040161090790611adf565b60405180910390fd5b61091a600061159b565b565b6000600560009054906101000a900473ffffffffffffffffffffffffffffffffffffffff16905090565b60606004805461095590611d03565b80601f016020809104026020016040519081016040528092919081815260200182805461098190611d03565b80156109ce5780601f106109a3576101008083540402835291602001916109ce565b820191906000526020600020905b8154815290600101906020018083116109b157829003601f168201915b5050505050905090565b60075481565b6000806109e9610d84565b90506000600160008373ffffffffffffffffffffffffffffffffffffffff1673ffffffffffffffffffffffffffffffffffffffff16815260200190815260200160002060008673ffffffffffffffffffffffffffffffffffffffff1673ffffffffffffffffffffffffffffffffffffffff16815260200190815260200160002054905083811015610aaf576040517f08c379a0000000000000000000000000000000000000000000000000000000008152600401610aa690611b5f565b60405180910390fd5b610abc8286868403610d8c565b60019250505092915050565b600080610ad3610d84565b9050610ae0818585610fe3565b600191505092915050565b6000600160008473ffffffffffffffffffffffffffffffffffffffff1673ffffffffffffffffffffffffffffffffffffffff16815260200190815260200160002060008373ffffffffffffffffffffffffffffffffffffffff1673ffffffffffffffffffffffffffffffffffffffff16815260200190815260200160002054905092915050565b610b7a610d84565b73ffffffffffffffffffffffffffffffffffffffff16610b9861091c565b73ffffffffffffffffffffffffffffffffffffffff1614610bee576040517f08c379a0000000000000000000000000000000000000000000000000000000008152600401610be590611adf565b60405180910390fd5b600073ffffffffffffffffffffffffffffffffffffffff168173ffffffffffffffffffffffffffffffffffffffff161415610c5e576040517f08c379a0000000000000000000000000000000000000000000000000000000008152600401610c5590611a5f565b60405180910390fd5b610c678161159b565b50565b610c72610d84565b73ffffffffffffffffffffffffffffffffffffffff16610c9061091c565b73ffffffffffffffffffffffffffffffffffffffff1614610ce6576040517f08c379a0000000000000000000000000000000000000000000000000000000008152600401610cdd90611adf565b60405180910390fd5b6001600860008373ffffffffffffffffffffffffffffffffffffffff1673ffffffffffffffffffffffffffffffffffffffff16815260200190815260200160002060006101000a81548160ff0219169083151502179055503373ffffffffffffffffffffffffffffffffffffffff167f040b36e5f5c5cc6240299ab538edea0b1248cfa68595dd15526f9f28049944f560405160405180910390a250565b600033905090565b600073ffffffffffffffffffffffffffffffffffffffff168373ffffffffffffffffffffffffffffffffffffffff161415610dfc576040517f08c379a0000000000000000000000000000000000000000000000000000000008152600401610df390611b3f565b60405180910390fd5b600073ffffffffffffffffffffffffffffffffffffffff168273ffffffffffffffffffffffffffffffffffffffff161415610e6c576040517f08c379a0000000000000000000000000000000000000000000000000000000008152600401610e6390611a7f565b60405180910390fd5b80600160008573ffffffffffffffffffffffffffffffffffffffff1673ffffffffffffffffffffffffffffffffffffffff16815260200190815260200160002060008473ffffffffffffffffffffffffffffffffffffffff1673ffffffffffffffffffffffffffffffffffffffff168152602001908152602001600020819055508173ffffffffffffffffffffffffffffffffffffffff168373ffffffffffffffffffffffffffffffffffffffff167f8c5be1e5ebec7d5bd14f71427d1e84f3dd0314c0f7b2291e5b200ac8c7c3b92583604051610f4a9190611b9f565b60405180910390a3505050565b6000610f638484610aeb565b90507fffffffffffffffffffffffffffffffffffffffffffffffffffffffffffffffff8114610fdd5781811015610fcf576040517f08c379a0000000000000000000000000000000000000000000000000000000008152600401610fc690611a9f565b60405180910390fd5b610fdc8484848403610d8c565b5b50505050565b600073ffffffffffffffffffffffffffffffffffffffff168373ffffffffffffffffffffffffffffffffffffffff161415611053576040517f08c379a000000000000000000000000000000000000000000000000000000000815260040161104a90611b1f565b60405180910390fd5b600073ffffffffffffffffffffffffffffffffffffffff168273ffffffffffffffffffffffffffffffffffffffff1614156110c3576040517f08c379a00000000000000000000000000000000000000000000000000000000081526004016110ba90611a1f565b60405180910390fd5b6110ce838383611661565b60008060008573ffffffffffffffffffffffffffffffffffffffff1673ffffffffffffffffffffffffffffffffffffffff16815260200190815260200160002054905081811015611154576040517f08c379a000000000000000000000000000000000000000000000000000000000815260040161114b90611abf565b60405180910390fd5b8181036000808673ffffffffffffffffffffffffffffffffffffffff1673ffffffffffffffffffffffffffffffffffffffff16815260200190815260200160002081905550816000808573ffffffffffffffffffffffffffffffffffffffff1673ffffffffffffffffffffffffffffffffffffffff16815260200190815260200160002060008282546111e79190611bf1565b925050819055508273ffffffffffffffffffffffffffffffffffffffff168473ffffffffffffffffffffffffffffffffffffffff167fddf252ad1be2c89b69c2b068fc378daa952ba7f163c4a11628f55a4df523b3ef8460405161124b9190611b9f565b60405180910390a361125e848484611666565b50505050565b600073ffffffffffffffffffffffffffffffffffffffff168273ffffffffffffffffffffffffffffffffffffffff1614156112d4576040517f08c379a00000000000000000000000000000000000000000000000000000000081526004016112cb90611b7f565b60405180910390fd5b6112e060008383611661565b80600260008282546112f29190611bf1565b92505081905550806000808473ffffffffffffffffffffffffffffffffffffffff1673ffffffffffffffffffffffffffffffffffffffff16815260200190815260200160002060008282546113479190611bf1565b925050819055508173ffffffffffffffffffffffffffffffffffffffff16600073ffffffffffffffffffffffffffffffffffffffff167fddf252ad1be2c89b69c2b068fc378daa952ba7f163c4a11628f55a4df523b3ef836040516113ac9190611b9f565b60405180910390a36113c060008383611666565b5050565b600073ffffffffffffffffffffffffffffffffffffffff168273ffffffffffffffffffffffffffffffffffffffff161415611434576040517f08c379a000000000000000000000000000000000000000000000000000000000815260040161142b90611aff565b60405180910390fd5b61144082600083611661565b60008060008473ffffffffffffffffffffffffffffffffffffffff1673ffffffffffffffffffffffffffffffffffffffff168152602001908152602001600020549050818110156114c6576040517f08c379a00000000000000000000000000000000000000000000000000000000081526004016114bd90611a3f565b60405180910390fd5b8181036000808573ffffffffffffffffffffffffffffffffffffffff1673ffffffffffffffffffffffffffffffffffffffff16815260200190815260200160002081905550816002600082825461151d9190611c47565b92505081905550600073ffffffffffffffffffffffffffffffffffffffff168373ffffffffffffffffffffffffffffffffffffffff167fddf252ad1be2c89b69c2b068fc378daa952ba7f163c4a11628f55a4df523b3ef846040516115829190611b9f565b60405180910390a361159683600084611666565b505050565b6000600560009054906101000a900473ffffffffffffffffffffffffffffffffffffffff16905081600560006101000a81548173ffffffffffffffffffffffffffffffffffffffff021916908373ffffffffffffffffffffffffffffffffffffffff1602179055508173ffffffffffffffffffffffffffffffffffffffff168173ffffffffffffffffffffffffffffffffffffffff167f8be0079c531659141344cd1fd0a4f28419497f9722a3daafe3b4186f6b6457e060405160405180910390a35050565b505050565b505050565b60008135905061167a816120e6565b92915050565b60008135905061168f816120fd565b92915050565b6000602082840312156116a757600080fd5b60006116b58482850161166b565b91505092915050565b600080604083850312156116d157600080fd5b60006116df8582860161166b565b92505060206116f08582860161166b565b9150509250929050565b60008060006060848603121561170f57600080fd5b600061171d8682870161166b565b935050602061172e8682870161166b565b925050604061173f86828701611680565b9150509250925092565b6000806040838503121561175c57600080fd5b600061176a8582860161166b565b925050602061177b85828601611680565b9150509250929050565b60006020828403121561179757600080fd5b60006117a584828501611680565b91505092915050565b6117b781611c7b565b82525050565b6117c681611c8d565b82525050565b60006117d782611bd5565b6117e18185611be0565b93506117f1818560208601611cd0565b6117fa81611d93565b840191505092915050565b6000611812602383611be0565b915061181d82611da4565b604082019050919050565b6000611835602283611be0565b915061184082611df3565b604082019050919050565b6000611858602683611be0565b915061186382611e42565b604082019050919050565b600061187b602283611be0565b915061188682611e91565b604082019050919050565b600061189e601d83611be0565b91506118a982611ee0565b602082019050919050565b60006118c1602683611be0565b91506118cc82611f09565b604082019050919050565b60006118e4602083611be0565b91506118ef82611f58565b602082019050919050565b6000611907602183611be0565b915061191282611f81565b604082019050919050565b600061192a602583611be0565b915061193582611fd0565b604082019050919050565b600061194d602483611be0565b91506119588261201f565b604082019050919050565b6000611970602583611be0565b915061197b8261206e565b604082019050919050565b6000611993601f83611be0565b915061199e826120bd565b602082019050919050565b6119b281611cb9565b82525050565b6119c181611cc3565b82525050565b60006020820190506119dc60008301846117ae565b92915050565b60006020820190506119f760008301846117bd565b92915050565b60006020820190508181036000830152611a1781846117cc565b905092915050565b60006020820190508181036000830152611a3881611805565b9050919050565b60006020820190508181036000830152611a5881611828565b9050919050565b60006020820190508181036000830152611a788161184b565b9050919050565b60006020820190508181036000830152611a988161186e565b9050919050565b60006020820190508181036000830152611ab881611891565b9050919050565b60006020820190508181036000830152611ad8816118b4565b9050919050565b60006020820190508181036000830152611af8816118d7565b9050919050565b60006020820190508181036000830152611b18816118fa565b9050919050565b60006020820190508181036000830152611b388161191d565b9050919050565b60006020820190508181036000830152611b5881611940565b9050919050565b60006020820190508181036000830152611b7881611963565b9050919050565b60006020820190508181036000830152611b9881611986565b9050919050565b6000602082019050611bb460008301846119a9565b92915050565b6000602082019050611bcf60008301846119b8565b92915050565b600081519050919050565b600082825260208201905092915050565b6000611bfc82611cb9565b9150611c0783611cb9565b9250827fffffffffffffffffffffffffffffffffffffffffffffffffffffffffffffffff03821115611c3c57611c3b611d35565b5b828201905092915050565b6000611c5282611cb9565b9150611c5d83611cb9565b925082821015611c7057611c6f611d35565b5b828203905092915050565b6000611c8682611c99565b9050919050565b60008115159050919050565b600073ffffffffffffffffffffffffffffffffffffffff82169050919050565b6000819050919050565b600060ff82169050919050565b60005b83811015611cee578082015181840152602081019050611cd3565b83811115611cfd576000848401525b50505050565b60006002820490506001821680611d1b57607f821691505b60208210811415611d2f57611d2e611d64565b5b50919050565b7f4e487b7100000000000000000000000000000000000000000000000000000000600052601160045260246000fd5b7f4e487b7100000000000000000000000000000000000000000000000000000000600052602260045260246000fd5b6000601f19601f8301169050919050565b7f45524332303a207472616e7366657220746f20746865207a65726f206164647260008201527f6573730000000000000000000000000000000000000000000000000000000000602082015250565b7f45524332303a206275726e20616d6f756e7420657863656564732062616c616e60008201527f6365000000000000000000000000000000000000000000000000000000000000602082015250565b7f4f776e61626c653a206e6577206f776e657220697320746865207a65726f206160008201527f6464726573730000000000000000000000000000000000000000000000000000602082015250565b7f45524332303a20617070726f766520746f20746865207a65726f20616464726560008201527f7373000000000000000000000000000000000000000000000000000000000000602082015250565b7f45524332303a20696e73756666696369656e7420616c6c6f77616e6365000000600082015250565b7f45524332303a207472616e7366657220616d6f756e742065786365656473206260008201527f616c616e63650000000000000000000000000000000000000000000000000000602082015250565b7f4f776e61626c653a2063616c6c6572206973206e6f7420746865206f776e6572600082015250565b7f45524332303a206275726e2066726f6d20746865207a65726f2061646472657360008201527f7300000000000000000000000000000000000000000000000000000000000000602082015250565b7f45524332303a207472616e736665722066726f6d20746865207a65726f20616460008201527f6472657373000000000000000000000000000000000000000000000000000000602082015250565b7f45524332303a20617070726f76652066726f6d20746865207a65726f2061646460008201527f7265737300000000000000000000000000000000000000000000000000000000602082015250565b7f45524332303a2064656372656173656420616c6c6f77616e63652062656c6f7760008201527f207a65726f000000000000000000000000000000000000000000000000000000602082015250565b7f45524332303a206d696e7420746f20746865207a65726f206164647265737300600082015250565b6120ef81611c7b565b81146120fa57600080fd5b50565b61210681611cb9565b811461211157600080fd5b5056fea26469706673582212209b039240afc9bc65fb15a6db8cad46eff1cd99874e99eda61843eebbcb023b8564736f6c63430008040033",
  "linkReferences": {},
  "deployedLinkReferences": {}
}