{
  "_format": "hh-sol-artifact-1",
  "contractName": "AtlantisDistributor",
  "sourceName": "contracts/AtlastisDistributor.sol",
  "abi": [
    {
      "inputs": [
        {
          "internalType": "address",
          "name": "_atlantisToken",
          "type": "address"
        }
      ],
      "stateMutability": "nonpayable",
      "type": "constructor"
    },
    {
      "anonymous": false,
      "inputs": [
        {
          "indexed": false,
          "internalType": "uint256",
          "name": "numberOfReceivers",
          "type": "uint256"
        },
        {
          "indexed": false,
          "internalType": "uint256",
          "name": "amount",
          "type": "uint256"
        }
      ],
      "name": "DistributionComplete",
      "type": "event"
    },
    {
      "inputs": [
        {
          "internalType": "address",
          "name": "_newAdmin",
          "type": "address"
        }
      ],
      "name": "addAdmin",
      "outputs": [],
      "stateMutability": "nonpayable",
      "type": "function"
    },
    {
      "inputs": [
        {
          "internalType": "address[]",
          "name": "_addresses",
          "type": "address[]"
        },
        {
          "internalType": "uint256[]",
          "name": "_amounts",
          "type": "uint256[]"
        }
      ],
      "name": "distributeToken",
      "outputs": [],
      "stateMutability": "nonpayable",
      "type": "function"
    },
    {
      "inputs": [
        {
          "internalType": "address",
          "name": "admin",
          "type": "address"
        }
      ],
      "name": "isAnAdmin",
      "outputs": [
        {
          "internalType": "bool",
          "name": "",
          "type": "bool"
        }
      ],
      "stateMutability": "view",
      "type": "function"
    },
    {
      "inputs": [
        {
          "internalType": "address",
          "name": "_receiver",
          "type": "address"
        }
      ],
      "name": "isReceiver",
      "outputs": [
        {
          "internalType": "bool",
          "name": "",
          "type": "bool"
        }
      ],
      "stateMutability": "view",
      "type": "function"
    },
    {
      "inputs": [],
      "name": "totalDistributed",
      "outputs": [
        {
          "internalType": "uint256",
          "name": "",
          "type": "uint256"
        }
      ],
      "stateMutability": "view",
      "type": "function"
    },
    {
      "inputs": [],
      "name": "totalReceivers",
      "outputs": [
        {
          "internalType": "uint256",
          "name": "",
          "type": "uint256"
        }
      ],
      "stateMutability": "view",
      "type": "function"
    }
  ],
  "bytecode": "0x60806040526000600255600060035534801561001a57600080fd5b50604051610f55380380610f55833981810160405281019061003c91906100ef565b80600460006101000a81548173ffffffffffffffffffffffffffffffffffffffff021916908373ffffffffffffffffffffffffffffffffffffffff16021790555060016000803373ffffffffffffffffffffffffffffffffffffffff1673ffffffffffffffffffffffffffffffffffffffff16815260200190815260200160002060006101000a81548160ff02191690831515021790555050610161565b6000815190506100e98161014a565b92915050565b60006020828403121561010157600080fd5b600061010f848285016100da565b91505092915050565b60006101238261012a565b9050919050565b600073ffffffffffffffffffffffffffffffffffffffff82169050919050565b61015381610118565b811461015e57600080fd5b50565b610de5806101706000396000f3fe608060405234801561001057600080fd5b50600436106100625760003560e01c8063392243e11461006757806351bf6fb314610097578063659de63b146100c757806370480275146100e3578063e6512a9d146100ff578063efca2eed1461011d575b600080fd5b610081600480360381019061007c91906108b8565b61013b565b60405161008e9190610a0c565b60405180910390f35b6100b160048036038101906100ac91906108b8565b610191565b6040516100be9190610a0c565b60405180910390f35b6100e160048036038101906100dc91906108e1565b6101e6565b005b6100fd60048036038101906100f891906108b8565b610621565b005b610107610756565b6040516101149190610a87565b60405180910390f35b61012561075c565b6040516101329190610a87565b60405180910390f35b6000600160008373ffffffffffffffffffffffffffffffffffffffff1673ffffffffffffffffffffffffffffffffffffffff16815260200190815260200160002060009054906101000a900460ff169050919050565b60008060008373ffffffffffffffffffffffffffffffffffffffff1673ffffffffffffffffffffffffffffffffffffffff16815260200190815260200160002060009054906101000a900460ff169050919050565b600115156000803373ffffffffffffffffffffffffffffffffffffffff1673ffffffffffffffffffffffffffffffffffffffff16815260200190815260200160002060009054906101000a900460ff16151514610278576040517f08c379a000000000000000000000000000000000000000000000000000000000815260040161026f90610a67565b60405180910390fd5b60c8825111156102bd576040517f08c379a00000000000000000000000000000000000000000000000000000000081526004016102b490610a27565b60405180910390fd5b600080600090505b83518110156105e157600460009054906101000a900473ffffffffffffffffffffffffffffffffffffffff1673ffffffffffffffffffffffffffffffffffffffff166340c10f19858381518110610345577f4e487b7100000000000000000000000000000000000000000000000000000000600052603260045260246000fd5b6020026020010151858481518110610386577f4e487b7100000000000000000000000000000000000000000000000000000000600052603260045260246000fd5b60200260200101516040518363ffffffff1660e01b81526004016103ab9291906109e3565b600060405180830381600087803b1580156103c557600080fd5b505af11580156103d9573d6000803e3d6000fd5b50505050600115156001600086848151811061041e577f4e487b7100000000000000000000000000000000000000000000000000000000600052603260045260246000fd5b602002602001015173ffffffffffffffffffffffffffffffffffffffff1673ffffffffffffffffffffffffffffffffffffffff16815260200190815260200160002060009054906101000a900460ff16151514610527576001600360008282546104889190610b59565b9250508190555060018060008684815181106104cd577f4e487b7100000000000000000000000000000000000000000000000000000000600052603260045260246000fd5b602002602001015173ffffffffffffffffffffffffffffffffffffffff1673ffffffffffffffffffffffffffffffffffffffff16815260200190815260200160002060006101000a81548160ff0219169083151502179055505b828181518110610560577f4e487b7100000000000000000000000000000000000000000000000000000000600052603260045260246000fd5b6020026020010151826105739190610b59565b91508281815181106105ae577f4e487b7100000000000000000000000000000000000000000000000000000000600052603260045260246000fd5b6020026020010151600260008282546105c79190610b59565b9250508190555080806105d990610c28565b9150506102c5565b507f7ebe2eeaae6bd0f991db7b8e1acb5791c0cbd8d14d949ad18da3713fa9a13261835182604051610614929190610aa2565b60405180910390a1505050565b600115156000803373ffffffffffffffffffffffffffffffffffffffff1673ffffffffffffffffffffffffffffffffffffffff16815260200190815260200160002060009054906101000a900460ff161515146106b3576040517f08c379a00000000000000000000000000000000000000000000000000000000081526004016106aa90610a67565b60405180910390fd5b6106bc81610191565b156106fc576040517f08c379a00000000000000000000000000000000000000000000000000000000081526004016106f390610a47565b60405180910390fd5b60016000808373ffffffffffffffffffffffffffffffffffffffff1673ffffffffffffffffffffffffffffffffffffffff16815260200190815260200160002060006101000a81548160ff02191690831515021790555050565b60035481565b60025481565b600061077561077084610af0565b610acb565b9050808382526020820190508285602086028201111561079457600080fd5b60005b858110156107c457816107aa888261083a565b845260208401935060208301925050600181019050610797565b5050509392505050565b60006107e16107dc84610b1c565b610acb565b9050808382526020820190508285602086028201111561080057600080fd5b60005b85811015610830578161081688826108a3565b845260208401935060208301925050600181019050610803565b5050509392505050565b60008135905061084981610d81565b92915050565b600082601f83011261086057600080fd5b8135610870848260208601610762565b91505092915050565b600082601f83011261088a57600080fd5b813561089a8482602086016107ce565b91505092915050565b6000813590506108b281610d98565b92915050565b6000602082840312156108ca57600080fd5b60006108d88482850161083a565b91505092915050565b600080604083850312156108f457600080fd5b600083013567ffffffffffffffff81111561090e57600080fd5b61091a8582860161084f565b925050602083013567ffffffffffffffff81111561093757600080fd5b61094385828601610879565b9150509250929050565b61095681610baf565b82525050565b61096581610bc1565b82525050565b6000610978602b83610b48565b915061098382610ce0565b604082019050919050565b600061099b601a83610b48565b91506109a682610d2f565b602082019050919050565b60006109be601783610b48565b91506109c982610d58565b602082019050919050565b6109dd81610bed565b82525050565b60006040820190506109f8600083018561094d565b610a0560208301846109d4565b9392505050565b6000602082019050610a21600083018461095c565b92915050565b60006020820190508181036000830152610a408161096b565b9050919050565b60006020820190508181036000830152610a608161098e565b9050919050565b60006020820190508181036000830152610a80816109b1565b9050919050565b6000602082019050610a9c60008301846109d4565b92915050565b6000604082019050610ab760008301856109d4565b610ac460208301846109d4565b9392505050565b6000610ad5610ae6565b9050610ae18282610bf7565b919050565b6000604051905090565b600067ffffffffffffffff821115610b0b57610b0a610ca0565b5b602082029050602081019050919050565b600067ffffffffffffffff821115610b3757610b36610ca0565b5b602082029050602081019050919050565b600082825260208201905092915050565b6000610b6482610bed565b9150610b6f83610bed565b9250827fffffffffffffffffffffffffffffffffffffffffffffffffffffffffffffffff03821115610ba457610ba3610c71565b5b828201905092915050565b6000610bba82610bcd565b9050919050565b60008115159050919050565b600073ffffffffffffffffffffffffffffffffffffffff82169050919050565b6000819050919050565b610c0082610ccf565b810181811067ffffffffffffffff82111715610c1f57610c1e610ca0565b5b80604052505050565b6000610c3382610bed565b91507fffffffffffffffffffffffffffffffffffffffffffffffffffffffffffffffff821415610c6657610c65610c71565b5b600182019050919050565b7f4e487b7100000000000000000000000000000000000000000000000000000000600052601160045260246000fd5b7f4e487b7100000000000000000000000000000000000000000000000000000000600052604160045260246000fd5b6000601f19601f8301169050919050565b7f63616e206e6f74206469737472696275746520746f206d6f7265207468616e2060008201527f323030206174206f6e6365000000000000000000000000000000000000000000602082015250565b7f7573657220697320616c726561647920616e206061646d696e60000000000000600082015250565b7f75736572206d75737420626520616e206061646d696e60000000000000000000600082015250565b610d8a81610baf565b8114610d9557600080fd5b50565b610da181610bed565b8114610dac57600080fd5b5056fea264697066735822122009c54fd6e97a34f9b5c00b3497e25473210a611addb8be97f63107394a5b0e1464736f6c63430008040033",
  "linkReferences": {},
  "deployedLinkReferences": {}
}