{
  "_format": "hh-sol-artifact-1",
  "contractName": "AtlantisDistributor",
  "sourceName": "contracts/AtlastisDistributor.sol",
  "abi": [
    {
      "inputs": [
        {
          "internalType": "address",
          "name": "_atlantisToken",
          "type": "address"
        }
      ],
      "stateMutability": "nonpayable",
      "type": "constructor"
    },
    {
      "anonymous": false,
      "inputs": [
        {
          "indexed": false,
          "internalType": "uint256",
          "name": "numberOfReceivers",
          "type": "uint256"
        },
        {
          "indexed": false,
          "internalType": "uint256",
          "name": "amount",
          "type": "uint256"
        }
      ],
      "name": "DistributionComplete",
      "type": "event"
    },
    {
      "inputs": [
        {
          "internalType": "address",
          "name": "newAdmin_",
          "type": "address"
        }
      ],
      "name": "addAdmin",
      "outputs": [],
      "stateMutability": "nonpayable",
      "type": "function"
    },
    {
      "inputs": [
        {
          "internalType": "address[]",
          "name": "_addresses",
          "type": "address[]"
        },
        {
          "internalType": "uint256[]",
          "name": "_amounts",
          "type": "uint256[]"
        }
      ],
      "name": "distributeToken",
      "outputs": [],
      "stateMutability": "nonpayable",
      "type": "function"
    },
    {
      "inputs": [
        {
          "internalType": "address",
          "name": "admin",
          "type": "address"
        }
      ],
      "name": "isAnAdmin",
      "outputs": [
        {
          "internalType": "bool",
          "name": "",
          "type": "bool"
        }
      ],
      "stateMutability": "view",
      "type": "function"
    },
    {
      "inputs": [
        {
          "internalType": "address",
          "name": "_receiver",
          "type": "address"
        }
      ],
      "name": "isReceiver",
      "outputs": [
        {
          "internalType": "bool",
          "name": "",
          "type": "bool"
        }
      ],
      "stateMutability": "view",
      "type": "function"
    },
    {
      "inputs": [],
      "name": "totalDistributed",
      "outputs": [
        {
          "internalType": "uint256",
          "name": "",
          "type": "uint256"
        }
      ],
      "stateMutability": "view",
      "type": "function"
    },
    {
      "inputs": [],
      "name": "totalReceivers",
      "outputs": [
        {
          "internalType": "uint256",
          "name": "",
          "type": "uint256"
        }
      ],
      "stateMutability": "view",
      "type": "function"
    }
  ],
  "bytecode": "0x60806040526000600255600060035534801561001a57600080fd5b50604051610ca8380380610ca8833981810160405281019061003c91906100ef565b80600460006101000a81548173ffffffffffffffffffffffffffffffffffffffff021916908373ffffffffffffffffffffffffffffffffffffffff16021790555060016000803373ffffffffffffffffffffffffffffffffffffffff1673ffffffffffffffffffffffffffffffffffffffff16815260200190815260200160002060006101000a81548160ff02191690831515021790555050610161565b6000815190506100e98161014a565b92915050565b60006020828403121561010157600080fd5b600061010f848285016100da565b91505092915050565b60006101238261012a565b9050919050565b600073ffffffffffffffffffffffffffffffffffffffff82169050919050565b61015381610118565b811461015e57600080fd5b50565b610b38806101706000396000f3fe608060405234801561001057600080fd5b50600436106100625760003560e01c8063392243e11461006757806351bf6fb314610097578063659de63b146100c757806370480275146100e3578063e6512a9d146100ff578063efca2eed1461011d575b600080fd5b610081600480360381019061007c91906106e3565b61013b565b60405161008e91906107f1565b60405180910390f35b6100b160048036038101906100ac91906106e3565b610191565b6040516100be91906107f1565b60405180910390f35b6100e160048036038101906100dc919061070c565b6101e6565b005b6100fd60048036038101906100f891906106e3565b61057e565b005b610107610581565b604051610114919061082c565b60405180910390f35b610125610587565b604051610132919061082c565b60405180910390f35b6000600160008373ffffffffffffffffffffffffffffffffffffffff1673ffffffffffffffffffffffffffffffffffffffff16815260200190815260200160002060009054906101000a900460ff169050919050565b60008060008373ffffffffffffffffffffffffffffffffffffffff1673ffffffffffffffffffffffffffffffffffffffff16815260200190815260200160002060009054906101000a900460ff169050919050565b60c88251111561022b576040517f08c379a00000000000000000000000000000000000000000000000000000000081526004016102229061080c565b60405180910390fd5b600080600090505b835181101561053e57600460009054906101000a900473ffffffffffffffffffffffffffffffffffffffff1673ffffffffffffffffffffffffffffffffffffffff166340c10f198583815181106102b3577f4e487b7100000000000000000000000000000000000000000000000000000000600052603260045260246000fd5b60200260200101518584815181106102f4577f4e487b7100000000000000000000000000000000000000000000000000000000600052603260045260246000fd5b60200260200101516040518363ffffffff1660e01b81526004016103199291906107c8565b600060405180830381600087803b15801561033357600080fd5b505af1158015610347573d6000803e3d6000fd5b50505050600115156001600086848151811061038c577f4e487b7100000000000000000000000000000000000000000000000000000000600052603260045260246000fd5b602002602001015173ffffffffffffffffffffffffffffffffffffffff1673ffffffffffffffffffffffffffffffffffffffff16815260200190815260200160002060009054906101000a900460ff161515146104895760016003546103f291906108fe565b6003819055506001151560016000868481518110610439577f4e487b7100000000000000000000000000000000000000000000000000000000600052603260045260246000fd5b602002602001015173ffffffffffffffffffffffffffffffffffffffff1673ffffffffffffffffffffffffffffffffffffffff16815260200190815260200160002060009054906101000a905050505b8281815181106104c2577f4e487b7100000000000000000000000000000000000000000000000000000000600052603260045260246000fd5b6020026020010151826104d591906108fe565b9150828181518110610510577f4e487b7100000000000000000000000000000000000000000000000000000000600052603260045260246000fd5b602002602001015160025461052591906108fe565b6002819055508080610536906109cd565b915050610233565b507f7ebe2eeaae6bd0f991db7b8e1acb5791c0cbd8d14d949ad18da3713fa9a13261835182604051610571929190610847565b60405180910390a1505050565b50565b60035481565b60025481565b60006105a061059b84610895565b610870565b905080838252602082019050828560208602820111156105bf57600080fd5b60005b858110156105ef57816105d58882610665565b8452602084019350602083019250506001810190506105c2565b5050509392505050565b600061060c610607846108c1565b610870565b9050808382526020820190508285602086028201111561062b57600080fd5b60005b8581101561065b578161064188826106ce565b84526020840193506020830192505060018101905061062e565b5050509392505050565b60008135905061067481610ad4565b92915050565b600082601f83011261068b57600080fd5b813561069b84826020860161058d565b91505092915050565b600082601f8301126106b557600080fd5b81356106c58482602086016105f9565b91505092915050565b6000813590506106dd81610aeb565b92915050565b6000602082840312156106f557600080fd5b600061070384828501610665565b91505092915050565b6000806040838503121561071f57600080fd5b600083013567ffffffffffffffff81111561073957600080fd5b6107458582860161067a565b925050602083013567ffffffffffffffff81111561076257600080fd5b61076e858286016106a4565b9150509250929050565b61078181610954565b82525050565b61079081610966565b82525050565b60006107a3602b836108ed565b91506107ae82610a85565b604082019050919050565b6107c281610992565b82525050565b60006040820190506107dd6000830185610778565b6107ea60208301846107b9565b9392505050565b60006020820190506108066000830184610787565b92915050565b6000602082019050818103600083015261082581610796565b9050919050565b600060208201905061084160008301846107b9565b92915050565b600060408201905061085c60008301856107b9565b61086960208301846107b9565b9392505050565b600061087a61088b565b9050610886828261099c565b919050565b6000604051905090565b600067ffffffffffffffff8211156108b0576108af610a45565b5b602082029050602081019050919050565b600067ffffffffffffffff8211156108dc576108db610a45565b5b602082029050602081019050919050565b600082825260208201905092915050565b600061090982610992565b915061091483610992565b9250827fffffffffffffffffffffffffffffffffffffffffffffffffffffffffffffffff0382111561094957610948610a16565b5b828201905092915050565b600061095f82610972565b9050919050565b60008115159050919050565b600073ffffffffffffffffffffffffffffffffffffffff82169050919050565b6000819050919050565b6109a582610a74565b810181811067ffffffffffffffff821117156109c4576109c3610a45565b5b80604052505050565b60006109d882610992565b91507fffffffffffffffffffffffffffffffffffffffffffffffffffffffffffffffff821415610a0b57610a0a610a16565b5b600182019050919050565b7f4e487b7100000000000000000000000000000000000000000000000000000000600052601160045260246000fd5b7f4e487b7100000000000000000000000000000000000000000000000000000000600052604160045260246000fd5b6000601f19601f8301169050919050565b7f63616e206e6f74206469737472696275746520746f206d6f7265207468616e2060008201527f323030206174206f6e6365000000000000000000000000000000000000000000602082015250565b610add81610954565b8114610ae857600080fd5b50565b610af481610992565b8114610aff57600080fd5b5056fea2646970667358221220d873ba8b5857054f5b09598183eaf0b5370d3a8c4b13b2f97ac185ab5ba4500b64736f6c63430008040033",
  "linkReferences": {},
  "deployedLinkReferences": {}
}