{
  "_format": "hh-sol-artifact-1",
  "contractName": "AtlantisDistributor",
  "sourceName": "contracts/AtlantisDistributor.sol",
  "abi": [
    {
      "inputs": [
        {
          "internalType": "address",
          "name": "_atlantisToken",
          "type": "address"
        }
      ],
      "stateMutability": "nonpayable",
      "type": "constructor"
    },
    {
      "inputs": [],
      "name": "NotAuthorised",
      "type": "error"
    },
    {
      "anonymous": false,
      "inputs": [
        {
          "indexed": true,
          "internalType": "address",
          "name": "admin",
          "type": "address"
        },
        {
          "indexed": false,
          "internalType": "address",
          "name": "newAdmin",
          "type": "address"
        }
      ],
      "name": "AddAdmin",
      "type": "event"
    },
    {
      "anonymous": false,
      "inputs": [
        {
          "indexed": false,
          "internalType": "uint256",
          "name": "numberOfReceivers",
          "type": "uint256"
        },
        {
          "indexed": false,
          "internalType": "uint256",
          "name": "amount",
          "type": "uint256"
        },
        {
          "indexed": false,
          "internalType": "uint256",
          "name": "time",
          "type": "uint256"
        },
        {
          "indexed": false,
          "internalType": "address",
          "name": "admin",
          "type": "address"
        }
      ],
      "name": "Distribution",
      "type": "event"
    },
    {
      "anonymous": false,
      "inputs": [
        {
          "indexed": true,
          "internalType": "address",
          "name": "admin",
          "type": "address"
        },
        {
          "indexed": false,
          "internalType": "address",
          "name": "removedAdmin",
          "type": "address"
        }
      ],
      "name": "RemoveAdmin",
      "type": "event"
    },
    {
      "anonymous": false,
      "inputs": [
        {
          "indexed": true,
          "internalType": "address",
          "name": "admin",
          "type": "address"
        },
        {
          "indexed": false,
          "internalType": "address",
          "name": "suggestedAdmin",
          "type": "address"
        },
        {
          "indexed": false,
          "internalType": "bytes16",
          "name": "action",
          "type": "bytes16"
        }
      ],
      "name": "SuggestAdmin",
      "type": "event"
    },
    {
      "inputs": [
        {
          "internalType": "address",
          "name": "_admin",
          "type": "address"
        }
      ],
      "name": "addAdmin",
      "outputs": [],
      "stateMutability": "nonpayable",
      "type": "function"
    },
    {
      "inputs": [
        {
          "internalType": "address[]",
          "name": "_addresses",
          "type": "address[]"
        },
        {
          "internalType": "uint256[]",
          "name": "_amounts",
          "type": "uint256[]"
        }
      ],
      "name": "distributeToken",
      "outputs": [],
      "stateMutability": "nonpayable",
      "type": "function"
    },
    {
      "inputs": [
        {
          "internalType": "address",
          "name": "_receiver",
          "type": "address"
        }
      ],
      "name": "isReceiver",
      "outputs": [
        {
          "internalType": "bool",
          "name": "",
          "type": "bool"
        }
      ],
      "stateMutability": "view",
      "type": "function"
    },
    {
      "inputs": [
        {
          "internalType": "address",
          "name": "_admin",
          "type": "address"
        }
      ],
      "name": "removeAdmin",
      "outputs": [],
      "stateMutability": "nonpayable",
      "type": "function"
    },
    {
      "inputs": [
        {
          "internalType": "address",
          "name": "",
          "type": "address"
        }
      ],
      "name": "suggestAdminsRemoval",
      "outputs": [
        {
          "internalType": "uint8",
          "name": "votes",
          "type": "uint8"
        }
      ],
      "stateMutability": "view",
      "type": "function"
    },
    {
      "inputs": [
        {
          "internalType": "address",
          "name": "",
          "type": "address"
        }
      ],
      "name": "suggestNewAdmins",
      "outputs": [
        {
          "internalType": "uint8",
          "name": "votes",
          "type": "uint8"
        }
      ],
      "stateMutability": "view",
      "type": "function"
    },
    {
      "inputs": [],
      "name": "totalDistributed",
      "outputs": [
        {
          "internalType": "uint256",
          "name": "",
          "type": "uint256"
        }
      ],
      "stateMutability": "view",
      "type": "function"
    },
    {
      "inputs": [],
      "name": "totalReceivers",
      "outputs": [
        {
          "internalType": "uint256",
          "name": "",
          "type": "uint256"
        }
      ],
      "stateMutability": "view",
      "type": "function"
    }
  ],
  "bytecode": "0x6080604052600060045560006005553480156200001b57600080fd5b506040516200178d3803806200178d8339818101604052810190620000419190620000f7565b80600660016101000a81548173ffffffffffffffffffffffffffffffffffffffff021916908373ffffffffffffffffffffffffffffffffffffffff16021790555060016000803373ffffffffffffffffffffffffffffffffffffffff1673ffffffffffffffffffffffffffffffffffffffff16815260200190815260200160002060006101000a81548160ff0219169083151502179055505062000171565b600081519050620000f18162000157565b92915050565b6000602082840312156200010a57600080fd5b60006200011a84828501620000e0565b91505092915050565b6000620001308262000137565b9050919050565b600073ffffffffffffffffffffffffffffffffffffffff82169050919050565b620001628162000123565b81146200016e57600080fd5b50565b61160c80620001816000396000f3fe608060405234801561001057600080fd5b50600436106100885760003560e01c8063704802751161005b57806370480275146101255780639af0e1d114610141578063e6512a9d14610171578063efca2eed1461018f57610088565b80631785f53c1461008d578063392243e1146100a957806354ceb4df146100d9578063659de63b14610109575b600080fd5b6100a760048036038101906100a29190610ec8565b6101ad565b005b6100c360048036038101906100be9190610ec8565b6104fd565b6040516100d09190611126565b60405180910390f35b6100f360048036038101906100ee9190610ec8565b610553565b6040516101009190611241565b60405180910390f35b610123600480360381019061011e9190610ef1565b61057e565b005b61013f600480360381019061013a9190610ec8565b6109c6565b005b61015b60048036038101906101569190610ec8565b610d3b565b6040516101689190611241565b60405180910390f35b610179610d66565b60405161018691906111e1565b60405180910390f35b610197610d6c565b6040516101a491906111e1565b60405180910390f35b6000803373ffffffffffffffffffffffffffffffffffffffff1673ffffffffffffffffffffffffffffffffffffffff16815260200190815260200160002060009054906101000a900460ff1661022f576040517f1648fd0100000000000000000000000000000000000000000000000000000000815260040160405180910390fd5b6000808273ffffffffffffffffffffffffffffffffffffffff1673ffffffffffffffffffffffffffffffffffffffff16815260200190815260200160002060009054906101000a900460ff166102ba576040517f08c379a00000000000000000000000000000000000000000000000000000000081526004016102b190611141565b60405180910390fd5b6001600660009054906101000a900460ff1660ff161415610310576040517f08c379a0000000000000000000000000000000000000000000000000000000008152600401610307906111a1565b60405180910390fd5b6000600360003373ffffffffffffffffffffffffffffffffffffffff1673ffffffffffffffffffffffffffffffffffffffff168152602001908152602001600020905060018160010160003373ffffffffffffffffffffffffffffffffffffffff1673ffffffffffffffffffffffffffffffffffffffff16815260200190815260200160002060006101000a81548160ff02191690831515021790555060018160000160008282829054906101000a900460ff166103ce9190611340565b92506101000a81548160ff021916908360ff1602179055503373ffffffffffffffffffffffffffffffffffffffff167f8e8259062151e73a59c7c52d5e9b1e9dd434da7ccc85aebd9e9229a2d57aef8d8360405161042c91906110d6565b60405180910390a2600360ff168160000160009054906101000a900460ff1660ff16106104f95760008060008473ffffffffffffffffffffffffffffffffffffffff1673ffffffffffffffffffffffffffffffffffffffff16815260200190815260200160002060006101000a81548160ff0219169083151502179055503373ffffffffffffffffffffffffffffffffffffffff167f148da362aaafc6bbf0e0b77d62428bcd324bcf9785839aa07881d6c78d295df1836040516104f09190611094565b60405180910390a25b5050565b6000600160008373ffffffffffffffffffffffffffffffffffffffff1673ffffffffffffffffffffffffffffffffffffffff16815260200190815260200160002060009054906101000a900460ff169050919050565b60036020528060005260406000206000915090508060000160009054906101000a900460ff16905081565b6000803373ffffffffffffffffffffffffffffffffffffffff1673ffffffffffffffffffffffffffffffffffffffff16815260200190815260200160002060009054906101000a900460ff16610600576040517f1648fd0100000000000000000000000000000000000000000000000000000000815260040160405180910390fd5b60c882511115610645576040517f08c379a000000000000000000000000000000000000000000000000000000000815260040161063c90611161565b60405180910390fd5b600080600090505b835181101561098257600073ffffffffffffffffffffffffffffffffffffffff168482815181106106a7577f4e487b7100000000000000000000000000000000000000000000000000000000600052603260045260246000fd5b602002602001015173ffffffffffffffffffffffffffffffffffffffff161461096f57600660019054906101000a900473ffffffffffffffffffffffffffffffffffffffff1673ffffffffffffffffffffffffffffffffffffffff166340c10f19858381518110610741577f4e487b7100000000000000000000000000000000000000000000000000000000600052603260045260246000fd5b6020026020010151858481518110610782577f4e487b7100000000000000000000000000000000000000000000000000000000600052603260045260246000fd5b60200260200101516040518363ffffffff1660e01b81526004016107a79291906110fd565b600060405180830381600087803b1580156107c157600080fd5b505af11580156107d5573d6000803e3d6000fd5b50505050610822848281518110610815577f4e487b7100000000000000000000000000000000000000000000000000000000600052603260045260246000fd5b60200260200101516104fd565b6108cc57600160055461083591906112ea565b600581905550600115156001600086848151811061087c577f4e487b7100000000000000000000000000000000000000000000000000000000600052603260045260246000fd5b602002602001015173ffffffffffffffffffffffffffffffffffffffff1673ffffffffffffffffffffffffffffffffffffffff16815260200190815260200160002060009054906101000a905050505b828181518110610905577f4e487b7100000000000000000000000000000000000000000000000000000000600052603260045260246000fd5b60200260200101518261091891906112ea565b9150828181518110610953577f4e487b7100000000000000000000000000000000000000000000000000000000600052603260045260246000fd5b602002602001015160045461096891906112ea565b6004819055505b808061097a906113fd565b91505061064d565b507ff5fce361d34e5fabb5ae5087cf23414d10bb745a53f03aeefe87818576a58b5583518242336040516109b994939291906111fc565b60405180910390a1505050565b6000803373ffffffffffffffffffffffffffffffffffffffff1673ffffffffffffffffffffffffffffffffffffffff16815260200190815260200160002060009054906101000a900460ff16610a48576040517f1648fd0100000000000000000000000000000000000000000000000000000000815260040160405180910390fd5b6000808273ffffffffffffffffffffffffffffffffffffffff1673ffffffffffffffffffffffffffffffffffffffff16815260200190815260200160002060009054906101000a900460ff1615610ad4576040517f08c379a0000000000000000000000000000000000000000000000000000000008152600401610acb90611181565b60405180910390fd5b600560ff16600660009054906101000a900460ff1660ff1610610b2c576040517f08c379a0000000000000000000000000000000000000000000000000000000008152600401610b23906111c1565b60405180910390fd5b6000600260003373ffffffffffffffffffffffffffffffffffffffff1673ffffffffffffffffffffffffffffffffffffffff168152602001908152602001600020905060018160010160003373ffffffffffffffffffffffffffffffffffffffff1673ffffffffffffffffffffffffffffffffffffffff16815260200190815260200160002060006101000a81548160ff02191690831515021790555060018160000160008282829054906101000a900460ff16610bea9190611340565b92506101000a81548160ff021916908360ff1602179055503373ffffffffffffffffffffffffffffffffffffffff167f8e8259062151e73a59c7c52d5e9b1e9dd434da7ccc85aebd9e9229a2d57aef8d83604051610c4891906110af565b60405180910390a2600360ff168160000160009054906101000a900460ff1660ff16101580610c8c5750600360ff16600660009054906101000a900460ff1660ff16105b15610d375760016000808473ffffffffffffffffffffffffffffffffffffffff1673ffffffffffffffffffffffffffffffffffffffff16815260200190815260200160002060006101000a81548160ff0219169083151502179055503373ffffffffffffffffffffffffffffffffffffffff167f99ad91c72e4fcc0a37d0481b982aec5c0c78491d30d39e65338bec15fa9cc4b783604051610d2e9190611094565b60405180910390a25b5050565b60026020528060005260406000206000915090508060000160009054906101000a900460ff16905081565b60055481565b60045481565b6000610d85610d8084611281565b61125c565b90508083825260208201905082856020860282011115610da457600080fd5b60005b85811015610dd45781610dba8882610e4a565b845260208401935060208301925050600181019050610da7565b5050509392505050565b6000610df1610dec846112ad565b61125c565b90508083825260208201905082856020860282011115610e1057600080fd5b60005b85811015610e405781610e268882610eb3565b845260208401935060208301925050600181019050610e13565b5050509392505050565b600081359050610e59816115a8565b92915050565b600082601f830112610e7057600080fd5b8135610e80848260208601610d72565b91505092915050565b600082601f830112610e9a57600080fd5b8135610eaa848260208601610dde565b91505092915050565b600081359050610ec2816115bf565b92915050565b600060208284031215610eda57600080fd5b6000610ee884828501610e4a565b91505092915050565b60008060408385031215610f0457600080fd5b600083013567ffffffffffffffff811115610f1e57600080fd5b610f2a85828601610e5f565b925050602083013567ffffffffffffffff811115610f4757600080fd5b610f5385828601610e89565b9150509250929050565b610f6681611377565b82525050565b610f7581611389565b82525050565b6000610f886011836112d9565b9150610f93826114b5565b602082019050919050565b6000610fab602c836112d9565b9150610fb6826114de565b604082019050919050565b6000610fce6010836112d9565b9150610fd98261152d565b602082019050919050565b7f6164640000000000000000000000000000000000000000000000000000000000815250565b7f72656d6f76650000000000000000000000000000000000000000000000000000815250565b600061103d6020836112d9565b915061104882611556565b602082019050919050565b6000611060601c836112d9565b915061106b8261157f565b602082019050919050565b61107f816113b5565b82525050565b61108e816113bf565b82525050565b60006020820190506110a96000830184610f5d565b92915050565b60006040820190506110c46000830184610f5d565b6110d060208301610fe4565b92915050565b60006040820190506110eb6000830184610f5d565b6110f76020830161100a565b92915050565b60006040820190506111126000830185610f5d565b61111f6020830184611076565b9392505050565b600060208201905061113b6000830184610f6c565b92915050565b6000602082019050818103600083015261115a81610f7b565b9050919050565b6000602082019050818103600083015261117a81610f9e565b9050919050565b6000602082019050818103600083015261119a81610fc1565b9050919050565b600060208201905081810360008301526111ba81611030565b9050919050565b600060208201905081810360008301526111da81611053565b9050919050565b60006020820190506111f66000830184611076565b92915050565b60006080820190506112116000830187611076565b61121e6020830186611076565b61122b6040830185611076565b6112386060830184610f5d565b95945050505050565b60006020820190506112566000830184611085565b92915050565b6000611266611277565b905061127282826113cc565b919050565b6000604051905090565b600067ffffffffffffffff82111561129c5761129b611475565b5b602082029050602081019050919050565b600067ffffffffffffffff8211156112c8576112c7611475565b5b602082029050602081019050919050565b600082825260208201905092915050565b60006112f5826113b5565b9150611300836113b5565b9250827fffffffffffffffffffffffffffffffffffffffffffffffffffffffffffffffff0382111561133557611334611446565b5b828201905092915050565b600061134b826113bf565b9150611356836113bf565b92508260ff0382111561136c5761136b611446565b5b828201905092915050565b600061138282611395565b9050919050565b60008115159050919050565b600073ffffffffffffffffffffffffffffffffffffffff82169050919050565b6000819050919050565b600060ff82169050919050565b6113d5826114a4565b810181811067ffffffffffffffff821117156113f4576113f3611475565b5b80604052505050565b6000611408826113b5565b91507fffffffffffffffffffffffffffffffffffffffffffffffffffffffffffffffff82141561143b5761143a611446565b5b600182019050919050565b7f4e487b7100000000000000000000000000000000000000000000000000000000600052601160045260246000fd5b7f4e487b7100000000000000000000000000000000000000000000000000000000600052604160045260246000fd5b6000601f19601f8301169050919050565b7f416c726561647920616e2061646d696e2e000000000000000000000000000000600082015250565b7f43616e206e6f74206469737472696275746520746f206d6f7265207468616e2060008201527f323030206174206f6e63652e0000000000000000000000000000000000000000602082015250565b7f416c726561647920616e2061646d696e00000000000000000000000000000000600082015250565b7f52656163686564206d696e696d756d206e756d626572206f662061646d696e73600082015250565b7f52656163686564206d6178206e756d626572206f662061646d696e7300000000600082015250565b6115b181611377565b81146115bc57600080fd5b50565b6115c8816113b5565b81146115d357600080fd5b5056fea2646970667358221220328c6366ad7bce189cc99190402ab495107f8c1db57daf7b1b8103b20812c09864736f6c63430008040033",
  "linkReferences": {},
  "deployedLinkReferences": {}
}